:020000040800F2
:10000000F0390120550200085D0200085F02000877
:100010006102000863020008650200080000000099
:100020000000000000000000000000009D0100082A
:100030006902000800000000F1010008C51D000869
:100040006F0200086F0200086F0200086F020008CC
:100050006F0200086F0200086F0200086F020008BC
:100060006F0200086F020008F10400086F02000828
:100070006F0200086F0200086F0200086F0200089C
:100080006F0200086F0200086F0200086F0200088C
:100090006F0200086F0200086F02000815050008D3
:1000A0006F0200086F0200086F0200086F0200086C
:1000B0006F0200086F0200083D1E00086F02000872
:1000C0006F0200086F0200086F0200086F0200084C
:1000D0006F020008291F0008C12100086F020008F4
:1000E000D50400086F0200086F0200086F020008C4
:1000F0006F0200086F0200086F0200086F0200081C
:100100006F0200086F0200084D1E00086F02000811
:100110006F0200086F0200086F0200086F020008FB
:100120006F0200086F0200086F0200086F020008EB
:100130006F0200086F0200086F0200086F020008DB
:100140006F0200086F0200086F0200086F020008CB
:100150006F0200086F0200086F0200080922000801
:100160006F0200086F0200086F0200086F020008AB
:100170006F0200086F0200086F0200086F0200089B
:100180006F0200086F020008DFF80CD000F0D0F812
:1001900000480047E5270008F03901202A4B19687C
:1001A0000868B0E8F04F80F30988BFF36F8F4FF015
:1001B000000080F3118870470000000006480068C6
:1001C000006880F3088862B661B6BFF34F8FBFF353
:1001D0006F8F00DF00BF00BF08ED00E0DFF80C000C
:1001E000016841F470010160704700BF88ED00E0D4
:1001F000EFF30980BFF36F8F134B1A681EF0100FD7
:1002000008BF20ED108A20E9F04F106008B44FF0CD
:10021000500080F31188BFF34F8FBFF36F8F03F04F
:100220008FFD4FF0000080F3118808BC1968086842
:10023000B0E8F04F1EF0100F08BFB0EC108A80F34A
:100240000988BFF36F8F704710040020EFF305801B
:10025000704700000648804706480047FEE7FEE773
:10026000FEE7FEE7FEE7FEE7FEE7FEE7FEE7FEE766
:10027000D51D00088901000840EA01039B0703D04F
:1002800009E008C9121F08C0042AFAD203E011F8D5
:10029000013B00F8013B521EF9D27047D2B201E097
:1002A00000F8012B491EFBD270470022F6E710B57B
:1002B00013460A4604461946FFF7F0FF204610BDD4
:1002C000421C10F8011B0029FBD1801A70472DE950
:1002D000F0410E460546002400E0641C285D00F055
:1002E00021F80746305D00F01DF8381A02D1295D6B
:1002F0000029F2D1BDE8F08130B50B46014600205F
:100300002022012409E021FA02F59D4205D303FAD7
:1003100002F5491B04FA02F52844151EA2F1010258
:10032000F1DC30BDA0F14101192900D8203070471F
:10033000064C074D06E0E06840F0010394E8070032
:1003400098471034AC42F6D3FFF722FFAC76000892
:10035000CC76000870B58D1810F8014B14F003022C
:1003600001D110F8012B231106D110F8013B03E055
:1003700010F8016B01F8016B521EF9D1ABB110F806
:10038000012B04F00C048A1A0C2C03D0A2EB84126B
:100390009B1C08E010F8014BA2EB0422F8E712F8CE
:1003A000014B01F8014B5B1EF9D5A942D4D30020C3
:1003B00070BD10B504460AE0642001F017F900F0A2
:1003C00033F8642001F012F900F024F8641E002CC8
:1003D000F2D110BD1CB50121022001F0FBF94FF450
:1003E0008060009001208DF8040000208DF8060048
:1003F00001208DF8070000208DF8050069460448AB
:1004000000F02EFA4FF48061014800F09DFA1CBD07
:100410000004024010B500224FF48061014800F052
:100420009BFA10BD0004024010B50122910202485F
:1004300000F092FA10BD0000000402403EB50446F0
:100440004FF6FF7000F03CFD1F2000901948028815
:1004500014230021084600F071FD1F20009015486C
:10046000438802884088143881B2002000F066FD7D
:100470004FF6FF7010490880012010211F234FF60E
:10048000FF72CDE9004102900221002000F0D8FA6D
:100490000120102109A2CDE90021029005484088E1
:1004A000123881B21F234FF6FF72002000F0C8FA05
:1004B0003EBD0000DC3501208404002068747470A7
:1004C0003A2F2F7777772E6C636477696B692E6389
:1004D0006F6D000010B5FFF7A7FF142002F036F98A
:1004E000FFF798FF4FF4005000F036F810BD000001
:1004F00010B5FFF799FF142002F028F9FFF78AFFE3
:10050000012003490860102000F026F810BD00000B
:100510009C00002010B520210E4800F00CFA48B9CC
:10052000FFF782FF142002F011F9FFF773FF20207C
:1005300000F012F84021074800F0FDF948B9FFF734
:1005400073FF142002F002F9FFF764FF402000F06F
:1005500003F810BD00100240014908607047000018
:10056000143C0140002123498279002A3AD00A46EE
:10057000126803689A430B461A600A1D12680368E2
:100580009A430B1D1A60027911440A6803681A43E2
:100590000A60184A0832126803689A43154B0833F8
:1005A0001A601A1D126803689A43124B0C331A60C2
:1005B0004279102A0ED11A1F126803681A430D4B94
:1005C00008331A601A1D126803681A43094B0C336A
:1005D0001A600DE00749427911440A6803681A431A
:1005E0000A6005E0027911440A6803689A430A60C8
:1005F00070470000003C01400EB56BA0FFF71EFFE6
:1006000000201C216EA24FF6E073CDE9002102907C
:1006100002461E21502001F0F3FA01201C216BA29A
:100620004FF6E073CDE9002102901F222D210A2010
:1006300001F0E6FA01201C21664A4FF6E073CDE98D
:10064000002102901F222D21322001F0D9FA012031
:100650001C2161A24FF6E073CDE9002102901F2218
:100660002D21552001F0CCFA01201C215BA24FF670
:10067000E073CDE9002102904FF61F023C210A20D1
:1006800001F0BEFA01201C21564A4FF6E073CDE975
:10069000002102904FF61F023C21322001F0B0FAF7
:1006A00001201C2150A24FF6E073CDE900210290F9
:1006B0004FF61F023C21552001F0A2FA01201C2117
:1006C0004AA24FF6E073CDE9002102904FF4FC629C
:1006D00050210A2001F094FA01201C21454A4FF6CE
:1006E000E073CDE9002102904FF4FC6250213220EA
:1006F00001F086FA01201C213FA24FF6E073CDE9FC
:10070000002102904FF4FC625021552001F078FA4C
:1007100000201C2139A24FF6E073CDE900210290A0
:1007200002466421502001F06BFA01201C2136A200
:100730004FF6E073CDE900210290002278210A20D3
:1007400001F05EFA354800781E2825DB3348007832
:10075000322821DA002000F09BFF0320FFF729FE5A
:100760002FA20321142000F0E7FF2E4A032132209C
:1007700000F0BDFF2C4A0321462000F0B8FF2B4AB1
:1007800003215A2000F0B3FF294A03216E2000F014
:10079000AEFF28A001F0E2F801F008F841F2707015
:1007A00003F022F90EBD000050726F70657274790B
:1007B000207265636F726420666F726D00000000C6
:1007C000436C69656E743A323031000074656D7047
:1007D0003A000000DC0000204300000068756D69ED
:1007E0003A000000E100002025524800696C6C7559
:1007F0003A000000E60000204C780000436C696578
:100800006E743A32303200004E6F20666F756E643F
:1008100020323032202E2E2E2E2E2E00D6000020FA
:1008200032303100EE0000200E0100208A0400204A
:10083000AA040020323031D7A1BBA7BCD2C0EFCE72
:10084000C2B6C8B9FDB8DF0010B50446214603485A
:1008500001F011FB012001F079FF10BD00180040EC
:10086000F0B50A4600210023002400BF3DE0012529
:1008700005FA01F3156805EA03049C4234D10568C2
:100880004F000326BE40B543056015794E00B540C4
:100890000668354305601579012D02D01579022DC2
:1008A00016D185684F000326BE40B5438560557953
:1008B0004E00B540866835438560456801268E4008
:1008C000B5434560456896798E40B6B2354345607C
:1008D000C5684F000326BE40B543C560D5794E00BC
:1008E000B540C6683543C560491C1029BFD3F0BD6B
:1008F000F0B5002300244D07ED0E02FA05F3CE10EB
:1009000000F1200555F826504E07F70E0F26BE4081
:10091000B543CF1000F1200646F82750CE1000F165
:10092000200555F8265045EA0304CE1000F12005B5
:1009300045F82640F0BD0246002013690B400BB17C
:10094000012000E000207047418370470183704719
:1009500042694A40426170470AB1018300E0418325
:10096000704730B5DDE9034530BD30B5DDE90345FD
:1009700030BD30B5DDE9034530BD000024E0002482
:100980001248006801281BD100200AE00C2807DB70
:100990000F49095C0F4A1155641C01210E4A116070
:1009A000401C1828F2DB01F0C9F80B480068012848
:1009B00001D101F02BF800200449086007490860C4
:1009C000C82003F011F800BFD9E70000CC000020D8
:1009D000BD070020D0060020D0000020C800002065
:1009E0002DE9F04706460F46154607F13B0083B256
:1009F00006F13B0082B23946304600F043FC002449
:100A00000AE015F8149005EB440090F8018049EADB
:100A1000082000F0D3FD641CB4F5616FF1DB0748DA
:100A20004088401E83B205480088401E82B20021E3
:100A3000084600F027FCBDE8F0870000DC35012007
:100A40002DE9FE4F0E4617469846DDE90D9A0C9C9F
:100A50002046FFF735FC85B208490988A1EBC5009F
:100A600000EBD071C1F34F0B43463A46314658462E
:100A70008DE8100601F0C4F8BDE8FE8FDC350120DA
:100A80001CB50121022000F0A5FE01208DF8040014
:100A9000C020009001208DF8060000208DF807008E
:100AA0008DF8050069460248FFF7DAFE1CBD00001C
:100AB0000004024010B540211148FFF745FF012016
:100AC00001F050FE80210E48FFF740FF012001F0A9
:100AD00049FE40210A48FFF739FF012001F042FE9C
:100AE00080210748FFF727FF08B1012010BD4021F2
:100AF0000348FFF729FF012001F034FE0020F5E74D
:100B00000004024070B50546002400BF1FE04021EC
:100B10001448FFF719FF012001F024FEC4F107007B
:100B200045FA00F000F0010020B180210D48FFF7E8
:100B30000DFF03E080210B48FFF706FF4021094825
:100B4000FFF704FF042001F00DFE601CC4B2082C66
:100B5000DDDB40210348FFF7F7FE022001F002FE33
:100B600070BD00000004024010B540210A48FFF7A4
:100B7000EDFE80210848FFF7E9FE022001F0F2FDBA
:100B800080210548FFF7E0FE022001F0EBFD402147
:100B90000148FFF7D9FE10BD0004024010B58021C6
:100BA0000C48FFF7D1FE40210A48FFF7CDFE022096
:100BB00001F0D8FD40210748FFF7C8FE022001F0F0
:100BC000D1FD80210348FFF7C1FE022001F0CAFDDC
:100BD00010BD00000004024000B585B0012188036B
:100BE00000F018FE1020039000208DF81000012066
:100BF0008DF8130000208DF8110003A91248FFF7AB
:100C00002FFE0421084600F0E1FE10200190012093
:100C10008DF80A000C208DF8090000208DF80800DE
:100C200001A8FFF79FFC0A208DF8000001208DF835
:100C3000030000208DF801008DF80200684600F0E6
:100C4000E1FC05B000BD00000010024000B585B019
:100C50000121880300F0DEFD2020039000208DF8A4
:100C6000100001208DF8130000208DF8110003A959
:100C70001248FFF7F5FD0521042000F0A7FE202013
:100C8000019001208DF80A000C208DF80900002049
:100C90008DF8080001A8FFF765FC17208DF800000B
:100CA00001208DF8030000208DF801008DF802006E
:100CB000684600F0A7FC05B000BD0000001002402F
:100CC00000B585B00121880300F0A4FD4020039009
:100CD00000208DF8100001208DF8130000208DF801
:100CE000110003A91248FFF7BBFD0621042000F004
:100CF0006DFE4020019001208DF80A000C208DF837
:100D0000090000208DF8080001A8FFF72BFC172030
:100D10008DF8000001208DF8030000208DF80100FF
:100D20008DF80200684600F06DFC05B000BD0000C3
:100D30000010024000B585B00121880300F06AFD73
:100D40004FF40050039000208DF8100001208DF822
:100D5000130000208DF8110003A91348FFF780FD50
:100D60000D21022000F032FE4FF4005001900120CE
:100D70008DF80A000C208DF8090000208DF808007D
:100D800001A8FFF7EFFB28208DF8000001208DF867
:100D9000030000208DF801008DF80200684600F085
:100DA00031FC05B000BD00000008024010B5AE20C7
:100DB00001F064FB002001F061FB102001F05EFBFC
:100DC000402001F05BFB812001F058FBCF2001F0B7
:100DD00055FBA12001F052FBC82001F04FFBA620DB
:100DE00001F04CFBA82001F049FB3F2001F046FB3D
:100DF000D32001F043FB002001F040FBD52001F09F
:100E00003DFB802001F03AFBD92001F037FBF120B7
:100E100001F034FBDA2001F031FB122001F02EFB4F
:100E2000DB2001F02BFB402001F028FB022001F029
:100E300025FB8D2001F022FB142001F01FFBA420D4
:100E400001F01CFBA62001F019FBAF2001F016FBFE
:100E5000AF2001F013FB002000F01AFC10BD0000D1
:100E60001CB50121102000F0B5FC7020009000207E
:100E70008DF8040001208DF8070000208DF8050092
:100E800069460248FFF7ECFC1CBD00000010024060
:100E90001CB50121042000F09DFC00208DF8040009
:100EA0004FF40050009001208DF8070000208DF8CD
:100EB000050069460148FFF7D3FC1CBD000802404D
:100EC00070B5064613484088401E83B2114800881A
:100ED000401E82B20021084600F0D4F900200E49DD
:100EE000086001200D49C1F89C0200240AE0002599
:100EF00003E0304600F062FB6D1C06480088A84203
:100F0000F7D8641C03484088A042F0D80120024969
:100F1000086070BDDC350120880242420000424278
:100F200070B504460D462946204600F0A1F9024856
:100F3000008800F043FB70BD840400202DE9F05FC1
:100F400004460D4616461F46301B401C1FFA80FA09
:100F5000781B401C1FFA80FB3B4632462946204640
:100F600000F090F94FF000080FE04FF0000906E0A4
:100F70000A9800F023FB09F101001FFA80F9D1451E
:100F8000F6DB08F101001FFA80F8D845EDDB0748D1
:100F90004088401E83B205480088401E82B200216E
:100FA000084600F06FF9BDE8F09F0000DC35012035
:100FB0001CB50121182000F00DFC44F68C000090B7
:100FC00001208DF8040003208DF8050000208DF825
:100FD000060001208DF8070069460648FFF740FC2F
:100FE0000120009000208DF8040069460248FFF7B8
:100FF00037FC1CBD00100240000C024010B5FFF78A
:10100000D7FF00F021F9CF2000F00EFA002000F009
:10101000F7F9D92000F0F4F9302000F0F1F9ED20D3
:1010200000F002FA642000F0EBF9032000F0E8F988
:10103000122000F0E5F9812000F0E2F9E82000F04C
:10104000F3F9852000F0DCF9102000F0D9F97A20BE
:1010500000F0D6F9CB2000F0E7F9392000F0D0F904
:101060002C2000F0CDF9002000F0CAF9342000F067
:10107000C7F9022000F0C4F9F72000F0D5F92020CC
:1010800000F0BEF9EA2000F0CFF9002000F0B8F936
:10109000002000F0B5F9C02000F0C6F91B2000F0D8
:1010A000AFF9C12000F0C0F9122000F0A9F9C52065
:1010B00000F0BAF9262000F0A3F9262000F0A0F9EC
:1010C000C72000F0B1F9B02000F09AF9362000F006
:1010D000ABF9082000F094F93A2000F0A5F955206A
:1010E00000F08EF9B12000F09FF9002000F088F99F
:1010F0001A2000F085F9B62000F096F90A2000F0D9
:101100007FF9A22000F07CF9F22000F08DF9002098
:1011100000F076F9262000F087F9012000F070F940
:10112000E02000F081F91F2000F06AF9242000F08F
:1011300067F9242000F064F90D2000F061F9122015
:1011400000F05EF9092000F05BF9522000F058F938
:10115000B72000F055F93F2000F052F90C2000F0C4
:101160004FF9152000F04CF9062000F049F90E2047
:1011700000F046F9082000F043F9002000F040F9A3
:10118000E12000F051F9002000F03AF91B2000F0B6
:1011900037F91B2000F034F9022000F031F90E205D
:1011A00000F02EF9062000F02BF92E2000F028F98F
:1011B000482000F025F93F2000F022F9032000F03C
:1011C0001FF90A2000F01CF9092000F019F931205C
:1011D00000F016F9372000F013F91F2000F010F985
:1011E0002B2000F021F9002000F00AF9002000F087
:1011F00007F9012000F004F93F2000F001F92A204E
:1012000000F012F9002000F0FBF8002000F0F8F8E0
:10121000002000F0F5F8EF2000F0F2F8112000F0C7
:1012200003F9782001F092FA292000F0FDF800205F
:1012300000F020F90120034908604FF6FF70FFF726
:101240003FFE10BDB482414210B50020064908603F
:10125000642001F07BFA01200449C1F88C0232209D
:1012600001F074FA10BD00008C02424200004242BC
:1012700070B504460D462B4622462946204600F00E
:1012800001F870BD2DE9F04104460D4616461F4693
:101290001149887A00F0C8F8201200F0B1F8E0B2E5
:1012A00000F0AEF8301200F0ABF8F0B200F0A8F8A1
:1012B0000949087B00F0B8F8281200F0A1F8E8B25C
:1012C00000F09EF8381200F09BF8F8B200F098F8A1
:1012D00000F0BEF8BDE8F081DC3501202DE9FF4FBC
:1012E00083B081468A469346DDE910644048008811
:1012F0000290A6F12000C6B204EBD47009EB6000A6
:10130000401E82B20AEB0400401E83B2514648469A
:101310000194FFF7B7FF129850BB002525E00C2C75
:1013200007D106EB4600334901EB800010F8058039
:1013300004E0314800EB061010F8058000270DE0AE
:1013400008F0010018B1584600F038F902E006989C
:1013500000F034F94FEA6808781CC7B204EBD47186
:10136000B7EB610FECDB681CC5B2A542D7DB2DE003
:10137000002529E00C2C07D106EB46001D4901EBA6
:10138000800010F8058004E01B4800EB061010F800
:101390000580002711E01648A0F800B008F0010011
:1013A00038B10AEB050291B209EB070290B2FFF7E0
:1013B000B7FD4FEA6808781CC7B204EBD471B7EBED
:1013C000610FE8DB681CC5B2A542D3DB084902986F
:1013D00008800A484088401E83B208480088401EA2
:1013E00082B200210846FFF74DFF07B0BDE8F08F3D
:1013F000840400202050000894540008DC350120AB
:1014000010B5044600200649086001200549C1F8CE
:101410009C02204600F082FA01200149086010BDBC
:10142000880242420000424210B5044600200649AC
:1014300008600649C1F89C02204600F06FFA0120BE
:101440000149086010BD000088024242000042428B
:1014500010B50249087AFFF7E7FF10BDDC3501201F
:1014600070B505460C462846FFF7DEFFE0B2FFF7F1
:10147000C7FF70BD10B504462A201E4948812B20A5
:1014800088812C20088134B1012C0FD0022C18D077
:10149000032C2CD120E0F020164908804FF4A070D6
:1014A000488008213620FFF7DBFF21E04FF4A070D1
:1014B00010490880F020488068213620FFF7D0FFCF
:1014C00016E0F0200B4908804FF4A0704880C82136
:1014D0003620FFF7C5FF0BE04FF4A07005490880E8
:1014E000F0204880A8213620FFF7BAFF00E000BFB7
:1014F00000BF10BDDC35012010B50446012C04D01E
:10150000022C08D0032C12D10BE04FF48071094853
:10151000FFF71CFA0CE04FF400710648FFF716FACB
:1015200006E04FF480610348FFF710FA00E000BFC7
:1015300000BF10BD0010024010B50446012C03D1BD
:1015400001020848FFF700FA022C03D121020548E6
:10155000FFF7FAF9032C04D14FF480610148FFF73B
:10156000F3F910BD001002401CB50121102000F05D
:1015700031F94FF4E060009001208DF80400002064
:101580008DF8060001208DF8070000208DF8050079
:1015900069460948FFF764F94FF480710648FFF780
:1015A000D5F94FF400710448FFF7D0F94FF480618A
:1015B0000148FFF7CBF91CBD0010024010B50446EE
:1015C00000200849086001200749C1F89C02201248
:1015D00000F0A4F9E0B200F0A1F90120014908608F
:1015E00010BD00008802424200004242044A00FB53
:1015F00002F100BF0A00A1F10101FBD17047000018
:10160000A086010070B5002100230F22C4781CB30E
:10161000174C246804F4E064C4F5E064C4F30721C3
:10162000C1F10404E3B20A4144789C40E1B28478F9
:10163000144021430C07210E0E4C057861550478A7
:1016400004F01F050124AC4005786D11AD0005F1D3
:10165000E025C5F8004109E0047804F01F050124E5
:10166000AC40054D0678761145F8264070BD000067
:101670000CED00E000E400E080E100E002490143FD
:10168000024A1160704700000000FA050CED00E00E
:1016900070B50646002415E004F1B001C8B200F0B0
:1016A000EDFE002000F0EAFE102000F0E7FE00252D
:1016B00004E0304600F0F9FE681CC5B2802DF8DB6E
:1016C000601CC4B2082CE7DB70BD70B504460D4643
:1016D00005F1B001C8B200F0D1FE102141EA1410AA
:1016E00000F0CCFE04F00F0000F0C8FE70BD2DE944
:1016F000F04107460E461546002431463846FFF7AE
:10170000E4FF00BF04E0285D00F0CFFE601CC4B21F
:10171000102CF8DB701CC1B23846FFF7D6FF00244E
:1017200006E004F11001685C00F0BFFE601CC4B26A
:10173000102CF6DBBDE8F0812DE9F04106460F469E
:101740009046002445462AE039463046FFF7BDFF63
:10175000002409E02978203904EB0111124A505C79
:1017600000F0A3FE601CC4B2082CF3DB781CC1B2ED
:101770003046FFF7AAFF00240BE029782039082221
:1017800002EB01112144084A505C00F08EFE601CFF
:10179000C4B2082CF1DB6D1C06F10800C6B2287833
:1017A0000028D1D1BDE8F081304A000810B5084AC0
:1017B000C8211E20FFF714F9054AC8215A20FFF757
:1017C0000FF9034AC8219620FFF70AF910BD00005F
:1017D000845A000829B1064A12680243044B1A6071
:1017E00004E0034A12688243014B1A60704700000C
:1017F0003038024029B1064A12680243044B1A608D
:1018000004E0034A12688243014B1A6070470000EB
:101810004038024029B1064A12680243044B1A605C
:1018200004E0034A12688243014B1A6070470000CB
:1018300044380240F0B50021002200240225002691
:101840000223324F3F6807F00C0121B1042905D073
:10185000082937D105E02E4F076036E02D4F07608D
:1018600033E02A4F3F1F3F68C7F38056274F3F1F83
:101870003F6807F03F036EB1264FB7FBF3F7DFF881
:101880008CC0ACF1040CDCF800C0CCF3881C07FB66
:101890000CF40CE01E4FB7FBF3F7DFF870C0ACF1AF
:1018A000040CDCF800C0CCF3881C07FB0CF4174FC9
:1018B0003F1F3F68C7F301477F1C7D00B4FBF5F76E
:1018C000076002E0124F076000BF00BF0F4F3F6884
:1018D00007F0F0010909104F7A5C0768D7404760AC
:1018E0000A4F3F6807F4E051890A0B4F7A5C47685A
:1018F000D7408760054F3F6807F46041490B064FAA
:101900007A5C4768D740C760F0BD000008380240E5
:101910000024F40000127A00FE03002000210821B8
:1019200015E000F080021AB101220A4B1A6002E0B1
:101930000022084B1A600022064B0C331A60012269
:10194000054BC3F8B8224206100E4A1ED1B2002938
:10195000E7DC7047AC02424200004242F0B58DB075
:101960000646002700243046FEF7AAFCC5B2FD203B
:101970008DF8000000208DF80100E81CC0B28DF841
:10198000020001208DF803008DF8040000BF03E081
:101990001DF804004740641C052CF9D3002402E024
:1019A000305D4740641CAC42FAD32A4631460DF103
:1019B0000500FEF761FC681D0DF80070A81DC1B29E
:1019C000684600F04BFC0DB0F0BD000030B50022C1
:1019D0008B071C0F0F2303FA04F20B4B8C1053F8E8
:1019E00024309343084C8D1044F8253023468C1046
:1019F00053F824308C07240F00FA04F42343024CDC
:101A00008D1044F8253030BD0838014010B5122241
:101A100008A10D4801F062FE4FF4FA6000F096FE56
:101A20000D220A49084801F059FE40F6B83000F08E
:101A30008DFE10BD41542B43495053454E443D311A
:101A40002C31330D0A00000000440040D006002075
:101A50000CB50020019000903448006840F48030BC
:101A60003249086000BF3148006800F4003000903F
:101A70000198401C0190009818B90198B0F5A04F4A
:101A8000F1D12A48006800F4003010B10120009024
:101A900001E0002000900098012846D12348403002
:101AA000006840F0805021494031086020480068BB
:101AB00040F440401E4908601C48083000681B493B
:101AC000083108600846006840F400400860084695
:101AD000006840F4A05008601648091F0860081FFD
:101AE000006840F08070091F086000BF0F48006860
:101AF00000F000700028F9D040F205700E4908602F
:101B00000A480830006820F00300084908310860DE
:101B10000846006840F00200086000BF0348083033
:101B2000006800F00C000828F8D10CBD0038024015
:101B30000070004008544007003C024010B51A48AD
:101B400040781A4908701848C07819490870164832
:101B50000079487014484079164908701248807915
:101B600048701148C079144908700F48007A4870CD
:101B70000F484378027811A1124800F0BFFC0D48CD
:101B8000437802780DA1104800F0B8FC0A48437869
:101B900002780EA10F4800F0B1FC0E4B0A4A094929
:101BA0000DA000F09BFC10BDD0060020D40000204A
:101BB000D6000020D8000020DA00002025642E2561
:101BC00064000000DC000020E100002025642564A2
:101BD00000000000E6000020D7A1BBA7D2BBA3BA3B
:101BE000CEC2B6C8A3BA257320CAAAB6C8A3BA255E
:101BF0007320B9E2D5D5A3BA25730D0A0000000001
:101C00002DE9FF4F83B0064688469146DDE911472E
:101C1000109DB2464FF0000B71E0BBF1000F40D1B8
:101C200004EBD471384A1288A2EB6101B14204DBA3
:101C300035494988091B414502DA07B0BDE8F08FF4
:101C40002878802802DD4FF0010B58E028780D2815
:101C500006D108EB04001FFA80F856466D1C1EE002
:101C6000102C0DDD102128788DE883004A4641466E
:101C70003046069BFFF732FB06F1080086B20EE005
:101C800028788DE891004A4641463046069BFFF78A
:101C900025FB204604EBD07106EB61018EB26D1C72
:101CA0002DE019480088001BB04204DB164840882C
:101CB000001B404500DAC0E74FF0000B202C08D194
:101CC000CDE900574A4641463046069BFEF751FE95
:101CD00012E0182C08D1CDE900574A46414630465B
:101CE000069BFEF742FE07E0CDE900574A46414613
:101CF0003046069BFEF735FEAD1C301986B22878BB
:101D000000288AD100BF98E7DC35012010B5194AB8
:101D100002211E20FFF7EBFC174A02212D20FFF7BE
:101D2000E6FC164A02213C20FFF7E1FC144A02219E
:101D30004B20FFF7DCFC134A04211E20FFF7D7FCE1
:101D4000114A04212D20FFF7D2FC104A04213C2027
:101D5000FFF7CDFC0E4A04214B20FFF7C8FC0D4ACB
:101D600006212D20FFF7C3FC0B4A06213C20FFF77C
:101D7000BEFC10BD7E0300209E030020BE03002099
:101D8000DE030020BE020020DE020020FE02002052
:101D90001E0300203E0300205E030020042808D11B
:101DA0004FF0E021096941F004014FF0E022116198
:101DB00007E04FF0E021096921F004014FF0E02233
:101DC0001161704710B502F0D9FB012801D002F073
:101DD0009BF810BD10B51548006840F47000134919
:101DE00008601348006840F00100114908600020B5
:101DF0000F49083108600E4800680E4908400C4938
:101E000008600D48091D0860081F006820F4802044
:101E1000091F0860002006490C310860FFF718FE12
:101E20004FF0006001498039086010BD88ED00E086
:101E300000380240FFFFF6FE1030002410B50121EB
:101E4000014800F013F810BD0008004010B54FF431
:101E500000710448FEF77CFD0121034800F006F8FC
:101E600010BD00000010024000080040CA4302827A
:101E700070474163704781637047000000B587B0C9
:101E800001211020FFF7C6FC01210846FFF7A2FC44
:101E9000072209212248FEF72BFD07220A212048AC
:101EA000FEF726FD02208DF818004FF4C060059063
:101EB00001208DF81B0000208DF8190005A9184895
:101EC000FEF7CEFC4FF4E13001900020ADF8100099
:101ED0000C20ADF80E000020ADF80C00ADF80A00A3
:101EE000ADF8080001A90F4800F046FA01210D489D
:101EF00000F0DAF925208DF8000001208DF80300AC
:101F000000208DF801008DF802006846FFF77AFB8B
:101F1000012240F22551034800F009FA07B000BD44
:101F2000000002400010014010B540F225517348F6
:101F300000F0C6F958B1714800F088FA7049714A4A
:101F4000126888546F480068401C6E4908606EA192
:101F50006B48FEF7BCF958B9FEF766FA00206949EC
:101F6000086001206B49086018216548FEF79DF95B
:101F700069A16348FEF7ABF948B90120FFF7DCFA25
:101F800000206049086018215D48FEF78EF965A1C0
:101F90005B48FEF79CF950B9FEF73CFA002059491E
:101FA00008605C49086018215548FEF77EF960A179
:101FB0005348FEF78CF948B90120FFF79DFA00203D
:101FC0005049086018214E48FEF76FF95BA14C4854
:101FD000FEF77DF948B900204A49086018214848B1
:101FE000FEF763F901205849086058A14448FEF7FC
:101FF0006EF9A0B900204349086018214048FEF757
:1020000054F900205049086000215348FFF731FF80
:102010000220FFF771FA18213948FEF746F94FA15F
:102020003748FEF754F948B93220FEF70DFC00207E
:102030003449086018213248FEF737F94AA1304880
:10204000FEF745F948B90020FEF7FEFB00202D49B8
:10205000086018212A48FEF728F946A12848FEF70B
:1020600036F948B91E20FEF7EFFB0020254908602D
:1020700018212348FEF719F940A12148FEF727F956
:1020800048B95020FEF7E0FB00201E4908601821E7
:102090001B48FEF70AF93CA11948FEF718F948B9A0
:1020A0009620FEF7D1FB002016490860182114483D
:1020B000FEF7FBF837A11248FEF709F948B90120ED
:1020C0003949086000200F49086018210C48FEF7C4
:1020D000ECF836A10A48FEF7FAF840B90020324978
:1020E00008600849086018210548FEF7DEF840F24C
:1020F0002551024800F0C9F810BD00000010014051
:10210000A5070020C40000206F70656E2062656521
:1021100070000000A40000206F70656E204C4544E4
:1021200031000000636C6F736520626565700000AC
:10213000636C6F7365204C45443100006F70656EB1
:10214000204C454432000000BC000020636C6F73DB
:1021500065204C4544320000000001406F70656E00
:102160002066616E00000000636C6F73652066611D
:102170006E0000006C6F772066616E006D696464AC
:102180006C652066616E0000666173742066616E26
:1021900000000000737461727420636F6C6C65637F
:1021A0007420646174610000C000002073746F705B
:1021B00020636F6C6C65637420646174610000005F
:1021C00010B540F225510C4800F07AF858B10A4891
:1021D00000F03CF909490A4A126888540848006826
:1021E000401C0749086001200649086040F225515B
:1021F000014800F04AF810BD00440040BD0700202F
:10220000C8000020CC00002010B540F22551104835
:1022100000F063F8D8B10E4800F018F9C4B20D48C8
:10222000008800F4004090B90A480088C82808DAFD
:10223000084801880088401C064A1080064844541B
:1022400005E00448008840F400400249088010BDC1
:1022500000140140EC000020E207002030B50246E7
:102260000B46002405E012F8010B00F0F9F8601CA1
:10227000C4B29C42F7DB30BD01F40072B2F5007FBE
:1022800000D100BFCA430280704710B5002200236E
:1022900040F66A14A14200D100BF0A120124944002
:1022A000A3B2DC43048010BD21B1828942F4005204
:1022B000828104E082894DF6FF731A408281704763
:1022C00002460020B1F5007F00D100BF13880B400B
:1022D0000BB1012000E00020704770B502460024D9
:1022E00000230025002040F66A16B14200D100BF4D
:1022F000C1F3421501F01F03012606FA03F3012D75
:1023000002D19689334006E0022D02D1168A33406D
:1023100001E0968A33400C12012606FA04F416886E
:10232000344013B10CB1012000E0002070BDF0B5C5
:102330000346002400260025002040F66A17B94213
:1023400000D100BF1846C1F3421401F01F06012757
:1023500007FA06F5012C01D10C3004E0022C01D162
:10236000103000E014301AB107682F43076002E014
:102370000768AF430760F0BD2DE9FF4705460E46ED
:102380000024A14600BFA046B08900B100BF2C8A3E
:1023900024F44054F08804432C82AC8941F20C6050
:1023A0008443B08831890843718908430443AC8170
:1023B000AC8A24F44074B0890443AC826846FFF7C9
:1023C00039FA2048854202D01F48854202D1DDF803
:1023D0000C9001E0DDF80890A88900F4004040B1BD
:1023E00009EBC90000EB091031684900B0FBF1F7B7
:1023F00007E009EBC90000EB091031688900B0FB68
:10240000F1F76420B7FBF0F004012009642101FB1F
:102410001078A88900F4004040B1322000EBC800D9
:10242000B0FBF1F000F00700044308E0322000EBBD
:1024300008106421B0FBF1F000F00F0004432C8180
:10244000BDE8FF8700100140001401400146888864
:10245000C0F308007047C1F3080282807047000093
:1024600000BF0549098801F040010029F9D002495F
:10247000091D0880704700000014014070B5044633
:102480000025FEF771FB7820FEF73CFBFEF712FB00
:102490002846FEF737FBFEF70DFB2046FEF732FB22
:1024A000FEF708FBFEF77AFB70BD70B50546002409
:1024B00044F04004FEF758FB7820FEF723FBFEF7BC
:1024C000F9FA2046FEF71EFBFEF7F4FA2846FEF75F
:1024D00019FBFEF7EFFAFEF761FB70BD0FB4054B79
:1024E00010B503A9044A029800F02CF810BC5DF85E
:1024F00014FB0000AD270008CC0400200FB4084BEB
:1025000010B504A902AA039800F01CF8044602A919
:10251000002000F0F3F8204610BC5DF814FB00002A
:10252000FD26000802E008C8121F08C1002AFAD1DF
:1025300070477047002001E001C1121F002AFBD143
:10254000704700002DE9FF4F8BB09A460F460546B5
:10255000002606E025280BD052460D9990476D1CA9
:10256000761C28780028F5D10FB03046BDE8F08FF2
:102570000024A0460122604900E0044315F8013F11
:10258000203B02FA03F00842F7D128782E2817D111
:1025900015F8010F44F004042A280ED06FF02F0222
:1025A0002878A0F1300109290AD808EB880102EB4C
:1025B000410100EB01086D1CF2E757F8048B6D1C1C
:1025C000287869283ED006DC0028CDD063280BD0BF
:1025D000642804D136E0732810D075284BD05246B9
:1025E0000D999047761C85E017F8040B8DF80000D4
:1025F00000208DF80100E946012003E057F8049B14
:102600004FF0FF3061074FF0000401D40AE0641C72
:1026100044450DDA8442FADB19F804100029F6D19A
:1026200006E0641C8442FCDB19F804100029F8D190
:10263000264404E019F8010B52460D999047641E98
:10264000F8D257E001CF4FF00A0B002802DA4042DF
:102650002D2102E0210504D52B218DF82410012124
:1026600003E0E10705D02021F7E70DF120090891EB
:102670000CE00021F9E701CF4FF00A0BF9E75946CA
:10268000FDF73AFE01F1300209F8012D0028F6D1DC
:10269000ADEB090000F1200B600701D44FF00108F9
:1026A000D84502DDA8EB0B0000E0002080460024A6
:1026B00006E009A85246005D0D999047641C761CFF
:1026C00008988442F5DB04E0302052460D9990478B
:1026D000761CB8F10001A8F10108F5DC05E019F855
:1026E000010B52460D999047761CBBF10001ABF1EE
:1026F000010BF4DC6D1C34E7092801000A68531C47
:102700000B6010707047000070B504460420FFF79E
:1027100045FB0C48047025464FF47A704543012070
:10272000094908804FF0E020006940F002004FF0B6
:10273000E021086108464561006940F00100086138
:1027400070BD0000B4000020B600002030B5044683
:10275000002504E04FF47A7000F004F86D1CA542E7
:10276000F8D330BD70B5034600224FF0E0267569FE
:102770000D4E367803FB06F44FF0E026B16910E009
:102780004FF0E026B06988420BD0884202D20E1A80
:10279000324402E02E1A0E4432440146A24200D3D3
:1027A00000E0EDE700BF70BDB400002000BF054AA7
:1027B000128802F04002002AF9D0C2B2014B9A807E
:1027C00070470000001001400AE00020FEF760FFA3
:1027D000FFF79CFAFDF710FF4FF47A7001F004F94F
:1027E000F3E700001CB54FF44070FEF747FFFEF71B
:1027F000BBFEA820FFF788FFFDF7ECFDFEF730FBDE
:10280000FEF746FBFFF73AFB00F0BAFEFEF7E4F9ED
:10281000FEF71CFAFEF754FAFEF78CFA00F006FFFA
:10282000FEF72EF9FEF7C2FA00F0A0FDFEF7E6FB78
:102830000648012100238022CDE9001004A10748A9
:1028400001F06CFE01F02AFA00201CBDA800002057
:1028500073746172745F7461736B000011350008EA
:102860002DE9F04105460E461C4807681C480068E3
:10287000001D00F054FF50B91948006890F82C1062
:102880000120884017490968814316480160681C87
:1028900038B936B112480168091D134800F07DFFB0
:1028A0001AE07C190E4800684460BC4207D20C480C
:1028B0000168091D0D48006800F055FF0CE008484C
:1028C0000168091D0A48006800F04DFF09480068CA
:1028D000844201D207480460BDE8F081240400204E
:1028E0001004002028040020A00900201804002063
:1028F000140400204004002010B5044600F05AFFE4
:1029000024480068401C234908602348006840B9F7
:10291000214804600846006801280DD100F0DEF966
:102920000AE01E48006838B91B480068C06AE16ABE
:10293000884201D81848046019480068401C1849AA
:10294000086008460068206494F82C100120884034
:1029500014490968084313490860E16A01EB8101E1
:10296000114A02EB8100211D00F017FF00F04CFF1F
:102970000A48006868B108480068C06AE16A88428D
:1029800007D24FF0805009490860BFF34F8FBFF363
:102990006F8F10BD20040020100400202C040020A4
:1029A0003C04002028040020EC08002004ED00E096
:1029B00010B500F0FFFE10480068D0B90F4800F0D5
:1029C000C2FE0F4800F0BFFE0C480E4908600C48DC
:1029D0000D49086000220C210A2001F0AFFA0649D7
:1029E00008600846006820B108A10348006800F0AC
:1029F000BFFF00F009FF10BD54040020B4090020FF
:102A0000C80900204C04002050040020546D72516D
:102A10000000000070B523E001F08AF91348006857
:102A200008B9012000E00020054601F011FFBDB902
:102A300000F0C0FE0D48C068C468201D00F06FFEA5
:102A40000B480068401E0A4908600A480068401E9A
:102A50000849086000F0D8FE204600F060F800BF8A
:102A6000044800680028D7D170BD00008C09002000
:102A7000200400201C04002070B504460D46206C84
:102A800070B1216CE0680844E0606168E0688842E9
:102A900001D32068E0602846226CE168FDF7ECFB7A
:102AA00070BD2DE9F04104460F4615464FF0000871
:102AB000A66B206C40B9206860BB606801F018FE0E
:102AC00080460020606025E07DB93946226CA06810
:102AD000FDF7D2FB216CA0680844A060D4E9011086
:102AE000884217D32068A06014E03946226CE06861
:102AF000FDF7C2FB216CE068401AE0602168E068E5
:102B0000884203D2216C6068401AE060022D01D136
:102B100006B1761E701CA0634046BDE8F08110B57A
:102B20000446206B00F08EFE204600F08BFE10BDA8
:102B30000146084A126812680AB9012200E0002220
:102B40000A600A6822B9034A1268D268106800E075
:102B5000002070474C04002030B54FF496331748DE
:102B600000F007042CB1C01D20F00700134C041B1B
:102B70001B1B0246124C22600024114D6C60D018C1
:102B8000083820F007000F4C206000240D4D2D6800
:102B90006C600C4D2D682C601146441A4C60094C39
:102BA00024680C60084D4C682C60084D4C682C6003
:102BB0004FF00044064D2C6030BD0000DC090020C1
:102BC0006C040020740400207C04002078040020A1
:102BD0008004002000BFFFF71DFF064800680128A1
:102BE000F9D94FF0805004490860BFF34F8FBFF30D
:102BF0006F8FF0E7EC08002004ED00E02DE9F041D4
:102C000006460D4617469846069C0DB9246000E01E
:102C10002760E66325640121204601F09DFA84F8CF
:102C20004C80BDE8F0812DE9F05F82460F4690466A
:102C30009B460A9E0C9C4FEA8801A522206BFDF75B
:102C40002DFBA8F10100216B01EB800929F0070998
:102C500009F0070008B9012000E0002050B900BFCA
:102C6000502080F31188BFF34F8FBFF36F8F00BFE9
:102C700000BFFEE7002507E0795D04F1340041550F
:102C8000785D00B902E06D1C0A2DF5D300BF00216C
:102C90003D200155052E00D30426E662A6640020DF
:102CA000E064201D00F05CFD04F1180000F058FD08
:102CB0002461C6F10500A06164620020206584F8EB
:102CC00054005A465146484600F03AFB20600B98A3
:102CD00008B10B980460BDE8F09F000010B5002417
:102CE00007E004EB84010F4A02EB810000F02BFDAA
:102CF000641C052CF5D30C4800F025FD0B4800F0B2
:102D000022FD0B4800F01FFD0A4800F01CFD0A4898
:102D100000F019FD044809490860044808490860A2
:102D200010BD0000EC0800205009002064090020BC
:102D3000780900208C090020A0090020140400203C
:102D40001804002010B50146164800E0006803682A
:102D50008B42FBD30246436813448B4204D1436841
:102D60004C682344436001460A464B681344046898
:102D7000A34211D10C4C03682468A34208D04B68CD
:102D80000468646823444B6003681B680B6005E0BB
:102D9000054B1B680B6001E003680B60884200D0A4
:102DA000016010BD6C040020740400202DE9F04186
:102DB00004460D4616461F464FF000086560246124
:102DC000B5420CD8F01BA169884202D34FF001082C
:102DD00011E0211D0948006800F0C5FC0BE0BE426F
:102DE00004D2BD4202D34FF0010804E0211D044883
:102DF000006800F0B8FC4046BDE8F08150040020B7
:102E00004C04002070B5054600F0D4FCA86B08B94E
:102E1000012400E0002400F0F7FC204670BD70B5EE
:102E2000054600F0C7FCA86BE96B884201D101247C
:102E300000E0002400F0E8FC204670BDF8B505462F
:102E40000F4616480068C068C468201D00F067FC83
:102E5000E06901281DD1A06941192B463A46204658
:102E6000FFF7A4FFA8B1002003462A4601460090C0
:102E7000204601F09BFD064656B900BF502080F366
:102E80001188BFF34F8FBFF36F8F00BF00BFFEE706
:102E900000BF2046616A8847F8BD00004C0400204E
:102EA00070B586B06AE00398002867DB059C60690E
:102EB00008B9012000E0002010B9201D00F02FFC0F
:102EC00002A800F0BDF8054603980A2854D2DFE8AE
:102ED00000F009050731334F0608323400BF00BF48
:102EE00000BF00BF0498A269811803462A46204605
:102EF000FFF75CFFE8B12046616A8847E069012876
:102F000017D1002000900498A169421800231946A7
:102F1000204601F04BFD064656B900BF502080F315
:102F20001188BFF34F8FBFF36F8F00BF00BFFEE765
:102F300000BF22E000BF20E000BF0498A061A069AC
:102F400008B1012000E0002050B900BF502080F3FC
:102F50001188BFF34F8FBFF36F8F00BF00BFFEE735
:102F6000A06941192B462A462046FFF71FFF04E0BF
:102F7000204600F067FC00E000BF00BF00231A46B7
:102F800003A90448006801F005F800288BD106B0B9
:102F900070BD000054040020F8B505460C4600F052
:102FA000C7FE684600F04CF80646009820BB44B9BE
:102FB000B54206D801F04CFC31462846FFF73EFFEB
:102FC0001CE03CB10E480068006808B9012000E030
:102FD00000200446A91B22460A48006800F0DEFCD7
:102FE00001F036FC50B94FF0805007490860BFF33C
:102FF0004F8FBFF36F8F01E001F02AFCF8BD000096
:10300000500400205404002004ED00E00A4909683F
:10301000096809B9012100E0002121B14FF0FF3119
:10302000064A116006E004490968C968C868034A8D
:103030004168116070470000140400204004002023
:1030400070B5044601F0AAFA0546074800688542B3
:1030500004D200F00BF80120206001E00020206085
:1030600001480560284670BD5C0400202DE9F84346
:1030700032E024480068C068056822480068C068DB
:10308000C468201D00F04BFB2046616A8847E06958
:10309000012821D1A0694619AE4207D96660246192
:1030A000211D1848006800F05EFB15E00020034673
:1030B0002A4601460090204601F078FC074657B9A1
:1030C00000BF502080F31188BFF34F8FBFF36F8F85
:1030D00000BF00BFFEE700BF0A480068006808B9EB
:1030E000012000E000200028C3D00648D0F800806E
:1030F00005480068034908600348C0F80080BDE83F
:10310000F88300004C040020500400200E480068A2
:10311000401C08B9012000E0002050B900BF502039
:1031200080F31188BFF34F8FBFF36F8F00BF00BFD5
:10313000FEE700BF502080F31188BFF34F8FBFF32D
:103140006F8F00BF00BFFEE76004002008B500BF1E
:103150006846FFF7EDFC044620460099FFF71CFF88
:10316000FFF79EFEF4E770B5044600F023FB94F9E8
:10317000455010E0606A08B9012000E0002038B92D
:1031800004F1240001F018FB18B100F0D5FC00E0B8
:1031900003E0681E45B2002DECDC00BFFF2084F880
:1031A000450000F031FB00F005FB94F9445010E0BD
:1031B000206908B9012000E0002048B904F110009E
:1031C00001F0FAFA08B100F0B7FC681E45B200E061
:1031D00001E0002DECDC00BFFF2084F8440000F08B
:1031E00013FB70BD2DE9F04104464FF0000800F0DC
:1031F0009FFD4648006808B9FFF7AEFC44480068E8
:10320000204000286BD1D4B1083404F00700B0B1DD
:1032100004F00700C0F10800044404F0070008B9F6
:10322000012000E0002050B900BF502080F3118839
:10323000BFF34F8FBFF36F8F00BF00BFFEE7002CBF
:103240004DD034480068844249D8334E3046056832
:1032500001E02E462D686868A04202D22868002846
:10326000F7D12A480068854239D0306800F1080853
:10327000286830606868001B102819D92F1907F0DA
:10328000070008B9012000E0002050B900BF50201D
:1032900080F31188BFF34F8FBFF36F8F00BF00BF64
:1032A000FEE76868001B78606C603846FFF74AFDEF
:1032B000184968680968081A1649086008460068CD
:1032C00016490968884203D2124800681349086009
:1032D0000F4968680968084368600020286001F0A9
:1032E000B7FA08F0070008B9012000E0002050B943
:1032F00000BF502080F31188BFF34F8FBFF36F8F53
:1033000000BF00BFFEE74046BDE8F0817404002026
:1033100080040020780400206C0400207C0400203D
:103320000648006830B10549096801F14C00C96CD4
:10333000491C01600148006870470000100400202B
:10334000001F4FF080730360001F21F00103036032
:10335000001F054B036014380260001F6FF002036A
:1033600003602038704700000D31000810B50D22B1
:1033700030A1344800F0B2F941F28830FFF7E6F9A5
:103380000D222CA12F4800F0A9F94FF47A60FFF725
:10339000DDF905222CA12B4800F0A0F94FF4FA60CA
:1033A000FFF7D4F90E222AA1264800F097F940F63B
:1033B000B830FFF7CBF9202229A1224800F08EF97E
:1033C00041F28830FFF7C2F90E222DA11D4800F00E
:1033D00085F94FF4FA60FFF7B9F916222CA11948C4
:1033E00000F07CF94FF4FA60FFF7B0F91C222EA12F
:1033F000144800F073F941F28830FFF7A7F92C2246
:1034000030A1104800F06AF940F6B830FFF79EF995
:10341000112237A10B4800F061F940F6B830FFF7F0
:1034200095F9082237A1074800F058F901203749DB
:10343000086010BD41542B524553544F52450D0A5C
:10344000000000000044004041540D0A000000004C
:1034500041542B43574D4F44453D330D0A00000066
:1034600041542B43575341503D22776879222C22F7
:103470003132333435363738222C312C340D0A00B2
:1034800041542B4349504D55583D310D0A00000021
:1034900041542B4349505345525645523D312C38E7
:1034A0003038390D0A00000041542B43574A41502F
:1034B0003D2279726C222C22313233343536373842
:1034C000220D0A0041542B43495053544152543D5C
:1034D000312C22544350222C223139322E313638AD
:1034E0002E33302E323232222C363636360D0A004A
:1034F00041542B43495053454E443D312C350D0A20
:103500000000000031323334350D0A00D0000020B5
:103510001CB5044600F04EF90D4804210023322268
:10352000CDE900100BA10E4800F0F8FF0D48042172
:1035300000233222CDE900100BA10F4800F0EEFF6E
:103540000E48006800F07EFA00F05EF91CBD000035
:10355000AC0000204C4544325F7461736B00000086
:10356000C9270008B0000020476574436C69656E88
:10357000745F7461736B00007D090008A80000206F
:1035800000B587B001214804FEF734F90121082075
:10359000FEF720F9072205212248FDF7A9F90722A5
:1035A00006212048FDF7A4F96020059002208DF83F
:1035B000180000208DF8190001208DF81B0005A9C6
:1035C0001848FDF74DF94FF4E13001900020ADF8B7
:1035D00010000C20ADF80E000020ADF80C00ADF886
:1035E0000A00ADF8080001A90F48FEF7C5FE012149
:1035F0000D48FEF759FE012240F225510A48FEF718
:1036000096FE26208DF8000001208DF80300002092
:103610008DF801008DF802006846FDF7F3FF07B052
:1036200000BD0000000C02400044004000B587B01F
:1036300001212020FEF7EEF801210420FEF7CAF850
:10364000082207212348FDF753F9082206212148C3
:10365000FDF74EF9C020059002208DF818000020DB
:103660008DF81A0002208DF8190001208DF81B003A
:1036700005A91848FDF7F4F84FF416500190002002
:10368000ADF810000C20ADF80E000020ADF80C00D5
:10369000ADF80A00ADF8080001A90F48FEF76CFE6E
:1036A00001210D48FEF700FE012240F225510A4893
:1036B000FEF73DFE47208DF8000001208DF8030045
:1036C0008DF801008DF802006846FDF79BFF07B0FA
:1036D00000BD000000080240001401402DE9F04147
:1036E00007460C461546002640213846FEF7C4FD25
:1036F00000BF10E021783846FEF7ADFE00BF402144
:103700003846FEF7DDFD0028F9D040213846FEF7A7
:10371000B3FD641C761CAE42ECDBBDE8F0810146D3
:103720000A69D1E901309860D1E901035860506815
:10373000884201D188685060002008611068401EEE
:1037400010601068704700F1080141604FF0FF31D0
:10375000816000F10801C1600161002101607047D2
:1037600000210161704710B502460B685C1C0CB962
:10377000106907E002F1080000E04068446824682E
:103780009C42FAD944684C604C68A16088604160F2
:103790000A611468641C146010BD42684A60936832
:1037A0008B60936859609160086103685B1C0360DB
:1037B0007047000000BF502080F31188BFF34F8F87
:1037C000BFF36F8F00BF0E480068401C0C490860B3
:1037D00008460068012812D10A480068C0B208B93A
:1037E000012000E0002050B900BF502080F3118874
:1037F000BFF34F8FBFF36F8F00BF00BFFEE770476F
:103800006004002004ED00E00D48006850B900BFDE
:10381000502080F31188BFF34F8FBFF36F8F00BF2D
:1038200000BFFEE706480068401E054908600846DC
:10383000006820B9002080F3118800BF00BF7047E6
:103840006004002070B506463546002E3FD0083D86
:103850002C461F4960680968084008B1012000E053
:10386000002050B900BF502080F31188BFF34F8F64
:10387000BFF36F8F00BF00BFFEE7206808B90120CB
:1038800000E0002050B900BF502080F31188BFF342
:103890004F8FBFF36F8F00BF00BFFEE70C4960681A
:1038A0000968084098B1206888B9094960680968C2
:1038B0008843606000F03CFA064960680968084483
:1038C000044908602046FFF73DFA00F0C1FF70BDD3
:1038D0008004002078040020064800684FF47A71C4
:1038E000B0FBF1F0401E4FF0E02148610720086175
:1038F000704700000000002070B5FCF7A7FC0446EC
:10390000102C16D304F1E02090F8F05315480078FD
:10391000854201DB012000E0002050B900BF5020AB
:1039200080F31188BFF34F8FBFF36F8F00BF00BFCD
:10393000FEE70D48006800F4E0600C490968884221
:1039400001D8012000E0002050B900BF502080F3D2
:103950001188BFF34F8FBFF36F8F00BF00BFFEE72B
:1039600070BD0000640400200CED00E0680400203D
:10397000024600200BE0084B53F8303033B9064BB9
:1039800043F8301003EBC0035A6002E0401C0828E3
:10399000F1D300BF70470000AC0800202DE9F041D2
:1039A00005460E4617462C46FFF704FF94F94400DF
:1039B000401C10B9002084F8440094F94500401CD4
:1039C00010B9002084F84500FFF71EFFA06B28B94E
:1039D0003A46314604F1240000F0D0F82046FFF7C3
:1039E000C2FBBDE8F081000070B504460025D4B1EB
:1039F0001248006808B9012000E0002050B900BF5B
:103A0000502080F31188BFF34F8FBFF36F8F00BF3B
:103A100000BFFEE700F08CF900212046FEF720FFF2
:103A200000F016FF05463DB94FF08050044908608C
:103A3000BFF34F8FBFF36F8F70BD000048040020AD
:103A400004ED00E070B50546FFF7B4FE15B9304847
:103A5000006800E028460446201DFFF760FE78B9A4
:103A6000E06A00EB80002B4951F8200040B994F83F
:103A70002C100120884028490968814326480160AC
:103A8000A06A18B104F11800FFF749FE2348006846
:103A9000401C224908601E480068844209D1211D4B
:103AA0001F48FFF77AFE1F480068401C1D49086048
:103AB00009E01D480068401E1B4908602046FFF7CA
:103AC0002EF8FFF7A3FAFFF79FFE18480068E8B149
:103AD0000F480068844219D11548006808B90120D0
:103AE00000E0002050B900BF502080F31188BFF3E0
:103AF0004F8FBFF36F8F00BF00BFFEE74FF08050C6
:103B00000C490860BFF34F8FBFF36F8F70BD00008B
:103B100010040020EC080020280400203C040020B1
:103B20008C0900201C040020200400202C0400200C
:103B30004804002004ED00E00120014908607047BE
:103B40003404002070B504460D4654B900BF50201F
:103B500080F31188BFF34F8FBFF36F8F00BF00BF9B
:103B6000FEE70548016818312046FFF7FCFD0121FA
:103B70002846FEF775FE70BD1004002070B505469E
:103B80000E46144655B900BF502080F31188BFF38C
:103B90004F8FBFF36F8F00BF00BFFEE7064801687D
:103BA00018312846FFF7F9FD0CB14FF0FF362146DA
:103BB0003046FEF755FE70BD1004002070B5054676
:103BC0002C46002D4BD02649E06A0968C96A884214
:103BD00045D2A06900F0004028B921480068C06AB9
:103BE000C0F10500A061E16A01EB81011D4A02EB11
:103BF00081016069884201D1012000E0002050B3BA
:103C0000201DFFF78CFD78B9E06A00EB80001549B4
:103C100051F8200040B994F82C1001208840124936
:103C200009688143104801600D480068C06AE0627D
:103C300094F82C10012088400B49096808430A4970
:103C40000860E16A01EB8101064A02EB8100211D57
:103C5000FFF7A3FD03E002480068C06AE06270BDA0
:103C600010040020EC0800202804002050B900BFF8
:103C7000502181F31188BFF34F8FBFF36F8F00BFC7
:103C800000BFFEE703490968016003490968416014
:103C90007047000038040020240400201CB51D4893
:103CA00000210B468222CDE900101BA11C4800F028
:103CB00035FC0446012C02D100F04CFE0446012CD8
:103CC00015D100BF502080F31188BFF34F8FBFF391
:103CD0006F8F00BF4FF0FF3012490860012012497A
:103CE000086000201149086000F070F810E0601CC6
:103CF00008B1012000E0002050B900BF502080F33F
:103D00001188BFF34F8FBFF36F8F00BF00BFFEE777
:103D10001CBD00004404002049444C450000000044
:103D2000D52B0008400400202C040020240400208F
:103D300002480068401C01490860704748040020A0
:103D40001D48006818B101201C49086032E00020BD
:103D50001A4908601A480068B0FA80F0C0F11F01E3
:103D600001EB8100174A52F8200008B1012000E061
:103D7000002050B900BF502080F31188BFF34F8F4F
:103D8000BFF36F8F00BF00BFFEE701EB81020D4B59
:103D900003EB820042685268426000F10802436807
:103DA000934202D14268526842604268D268064B30
:103DB0001A6000BF7047000048040020340400204F
:103DC00028040020EC080020100400201CB54748FF
:103DD00000684749884201D0012000E0002050B926
:103DE00000BF502080F31188BFF34F8FBFF36F8F58
:103DF00000BF00BFFEE73D4800683D49491E8842BC
:103E000001D0012000E0002050B900BF502080F315
:103E10001188BFF34F8FBFF36F8F00BF00BFFEE766
:103E20003449084600780190FF200A461070084681
:103E3000007800909DF8000000F0F0009DF8002050
:103E4000904201D1012000E0002050B900BF502075
:103E500080F31188BFF34F8FBFF36F8F00BF00BF98
:103E6000FEE79DF8000000F05000234A1070072084
:103E7000224A106009E021480068401E1F4A106075
:103E80009DF800004006000E00909DF8000000F034
:103E900080008028EFD0194800680002174A10609F
:103EA0001046008800F4E0601060124A019810701B
:103EB0000E482030006840F470000C492031086042
:103EC0000846006840F070400860FFF705FD0020DC
:103ED0000B490860FCF782F90A48006840F040404E
:103EE00008490860FCF76AF900201CBD00ED00E0FD
:103EF00071C20F4100E400E0640400206804002067
:103F00006004002034EF00E010B500BF502080F3C3
:103F10001188BFF34F8FBFF36F8F00BF00F044FBDA
:103F200018B14FF080500449086000BF002080F3B2
:103F3000118800BF10BD000004ED00E02DE9F8433A
:103F400005460E4690460DB1012000E0002050B914
:103F500000BF502080F31188BFF34F8FBFF36F8FE6
:103F600000BF00BFFEE70EB9002701E005FB06F722
:103F700007F15000FFF736F9044644B104F1500947
:103F800043464A46314628460094FEF737FE20460F
:103F9000BDE8F8832DE9FF4782B005460E461F466F
:103FA0004FF0000A2C4654B900BF502080F311880E
:103FB000BFF34F8FBFF36F8F00BF00BFFEE70EB997
:103FC000206C08B9012000E0002050B900BF50204B
:103FD00080F31188BFF34F8FBFF36F8F00BF00BF17
:103FE000FEE700F0CBFA08B9049808B9012000E018
:103FF000002050B900BF502080F31188BFF34F8FCD
:10400000BFF36F8F00BF00BFFEE700BFFFF7D2FB1B
:10401000D4F83890B9F1000F3DD0D4F80C80314677
:104020002046FEF729FDDFB9A9F10100A063206851
:1040300010B9FFF775F96060206908B9012000E048
:10404000002010BB04F1100000F0B6FBE8B14FF007
:10405000805040490860BFF34F8FBFF36F8F14E06B
:10406000C4F80C80606A08B9012000E0002060B943
:1040700004F1240000F0A0FB38B14FF08050354926
:104080000860BFF34F8FBFF36F8FFFF7BDFB0120B9
:1040900006B0BDE8F087049818B9FFF7B5FB00201B
:1040A000F6E7BAF1000F04D16846FFF7DFFD4FF0E5
:1040B000010AFFF7A9FBFFF73BFEFFF77BFB94F933
:1040C0004400401C10B9002084F8440094F94500D5
:1040D000401C10B9002084F84500FFF795FB04A9A7
:1040E000684600F0D5F940BB2046FEF78BFEF0B1E4
:1040F000206830B9FFF75EFB6068FFF75FFDFFF7F0
:1041000083FB04F124000499FFF71CFD2046FFF710
:104110002AF800F09DFB00287FF478AF4FF0805024
:104120000C490860BFF34F8FBFF36F8F6EE72046D7
:10413000FFF719F800F08CFB68E72046FFF713F84B
:1041400000F086FB2046FEF75DFE0028EED0002042
:104150009EE7000004ED00E070B505460E462C46D3
:1041600054B900BF502080F31188BFF34F8FBFF3C5
:104170006F8F00BF00BFFEE7FFF71CFBD4E90F12F3
:10418000206801FB020060600020A0632068A0603E
:10419000E06B401E226C216800FB0210E060FF20F3
:1041A00084F8440084F845009EB9206908B90120CC
:1041B00000E00020A8B904F1100000F0FDFA80B181
:1041C0004FF0805009490860BFF34F8FBFF36F8FE6
:1041D00007E004F11000FFF7B6FA04F12400FFF73E
:1041E000B2FAFFF711FB012070BD000004ED00E002
:1041F0002DE9FF4383B0064688461D464FF000096F
:10420000344654B900BF502080F31188BFF34F8F5C
:10421000BFF36F8F00BF00BFFEE7B8F1000F01D101
:10422000206C08B9012000E0002050B900BF5020E8
:1042300080F31188BFF34F8FBFF36F8F00BF00BFB4
:10424000FEE7022D02D1E06B012801D1012000E040
:10425000002050B900BF502080F31188BFF34F8F6A
:10426000BFF36F8F00BF00BFFEE700F087F908B90A
:10427000059808B9012000E0002050B900BF502087
:1042800080F31188BFF34F8FBFF36F8F00BF00BF64
:10429000FEE700BFFFF78EFAA06BE16B884201D307
:1042A000022D28D12A4641462046FEF7FAFB074652
:1042B000606A08B9012000E0002068B904F1240018
:1042C00000F07AFA88B14FF0805032490860BFF3AD
:1042D0004F8FBFF36F8F08E03FB14FF080502D49F3
:1042E0000860BFF34F8FBFF36F8FFFF78DFA012088
:1042F00007B0BDE8F083059818B9FFF785FA0020EC
:10430000F6E7B9F1000F04D101A8FFF7AFFC4FF0B9
:104310000109FFF779FAFFF70BFDFFF74BFA94F964
:104320004400401C10B9002084F8440094F9450072
:10433000401C10B9002084F84500FFF765FA05A974
:1043400001A800F0A5F8F0B92046FEF768FDA0B17D
:1043500004F110000599FFF7F5FB2046FEF703FF77
:1043600000F076FA002895D14FF080500949086096
:10437000BFF34F8FBFF36F8F8CE72046FEF7F3FE3E
:1043800000F066FA86E72046FEF7EDFE00F060FAE0
:104390000020ADE704ED00E02DE9F05F07468A4616
:1043A00090461E463C4654B900BF502080F3118809
:1043B000BFF34F8FBFF36F8F00BF00BFFEE7BAF1AF
:1043C000000F01D1206C08B9012000E0002050B995
:1043D00000BF502080F31188BFF34F8FBFF36F8F62
:1043E00000BF00BFFEE7022E02D1E06B012801D121
:1043F000012000E0002050B900BF502080F3118858
:10440000BFF34F8FBFF36F8F00BF00BFFEE7FFF713
:1044100073FA00BF5021EFF3118081F31188BFF3CD
:104420004F8FBFF36F8F00BF0546A06BE16B8842D3
:1044300001D3022E23D194F945B03246514620468D
:10444000FEF72FFB0BF1010088B9606A08B9012063
:1044500000E0002080B904F1240000F0ADF958B16B
:10446000B8F1000F08D00120C8F8000004E00BF1FB
:10447000010040B284F845004FF0010901E04FF01F
:10448000000900BF85F3118800BF4846BDE8F09FD2
:1044900070B504460D4654B900BF502080F3118812
:1044A000BFF34F8FBFF36F8F00BF00BFFEE755B95B
:1044B00000BF502080F31188BFF34F8FBFF36F8F81
:1044C00000BF00BFFEE7FFF775F9124803682868D0
:1044D000401C08B9002619E00F4920680968884285
:1044E00004D06068984201D801260FE06068181A6D
:1044F0002968884209D228686168591A401A2860D8
:104500002046FFF7B3FB002600E00126FFF77CF909
:10451000304670BD24040020380400202DE9FF4FF0
:1045200085B0804689461746DDE912ABB800FEF734
:1045300059FE064656B15820FEF754FE04460CB10B
:10454000266304E03046FFF77DF900E000247CB1EB
:104550000020CDE900ABCDE902403A46494640464D
:10456000089BFEF760FB2046FEF7C6F9012501E037
:104570004FF0FF35284609B0BDE8F08F05490968BE
:1045800009B9012005E00449096809B9022000E0E1
:10459000002070472C0400204804002001490868CE
:1045A00070470000240400202DE9F0414FF000087E
:1045B00044480068002877D143480068451C4248B9
:1045C000056015BB41480068006808B9012000E09B
:1045D000002050B900BF502080F31188BFF34F8FE7
:1045E000BFF36F8F00BF00BFFEE738480768384849
:1045F0000068364908603648076036480068401C45
:1046000034490860FEF702FD00BF33480068854268
:104610003CD300BF2D480068006808B9012000E0C5
:10462000002020B14FF0FF302B4908602DE02748D3
:104630000068C068C4686668B54202D22648066051
:1046400023E0201DFFF76BF8A06A18B104F11800F1
:10465000FFF765F894F82C10012088401F4909687D
:1046600008431E490860E16A01EB81011C4A02EB24
:104670008100211DFFF791F81A49E06A0968C96AAB
:104680008842C7D34FF00108C4E700BF154800684F
:10469000C06A00EB8000124951F82000012801D9BE
:1046A0004FF0010805E0FFE70F480068401C0E4985
:1046B00008600E48006808B14FF001084046BDE8A8
:1046C000F08100004804002024040020140400208D
:1046D0001804002038040020400400202804002092
:1046E000EC080020100400203004002034040020D6
:1046F00070B505462C460026002D55D02B48006885
:10470000844201D1012000E0002050B900BF5020B8
:1047100080F31188BFF34F8FBFF36F8F00BF00BFCF
:10472000FEE7E06C50B900BF502080F31188BFF362
:104730004F8FBFF36F8F00BF00BFFEE7E06C401EDE
:10474000E064A16CE06A88422ED0E06C60BB201D62
:10475000FEF7E5FF78B9E06A00EB8000144951F8F4
:10476000200040B994F82C100120884011490968B4
:10477000814310480160A06CE062E06AC0F105006E
:10478000A06194F82C10012088400A490968084368
:1047900008490860E16A01EB8101054A02EB8100EA
:1047A000211DFEF7FAFF0126304670BD10040020DF
:1047B000EC0800202804002070B50646F068C468A4
:1047C00054B900BF502080F31188BFF34F8FBFF35F
:1047D0006F8F00BF00BFFEE704F11800FEF79FFFD8
:1047E00015480068A8B9201DFEF799FF94F82C1011
:1047F0000120884011490968084310490860E16AAE
:1048000001EB81010E4A02EB8100211DFEF7C5FF7D
:1048100004E004F118010B48FEF7BFFF0A49E06A03
:104820000968C96A884204D901250120074908603E
:1048300000E00025284670BD480400202804002020
:10484000EC08002078090020100400203404002027
:1048500070B5002400263648006850B900BF5020CB
:1048600080F31188BFF34F8FBFF36F8F00BF00BF7E
:10487000FEE7FEF79FFF2E480068401E2C490860A7
:104880000846006800284FD12A48006800284BD00D
:1048900024E02948C068C46804F11800FEF73FFF0F
:1048A000201DFEF73CFF94F82C100120884023497E
:1048B0000968084321490860E16A01EB8101204A47
:1048C00002EB8100211DFEF768FF1E49E06A0968BE
:1048D000C96A884202D301201B4908601648006853
:1048E00008B9012000E000200028D2D00CB1FEF76A
:1048F0008DFB1648056865B100BFFFF755FE10B186
:104900000120114908606D1E002DF6D100200F49CD
:1049100008600D48006838B1012630070C4908606E
:10492000BFF34F8FBFF36F8FFEF76EFF304670BD42
:1049300048040020200400207809002028040020DA
:10494000EC08002010040020340400203004002073
:1049500004ED00E01CB50024FEF72AF80E480068BC
:1049600058B10E48022100234FF48272CDE90010A5
:104970000BA10D48FFF7D2FD044654B900BF5020EB
:1049800080F31188BFF34F8FBFF36F8F00BF00BF5D
:10499000FEE720461CBD00005404002058040020FF
:1049A000546D7220537663004D3100082DE9FE43AB
:1049B00004460D4616461F46DDF828804FF00009D4
:1049C00054B900BF502080F31188BFF34F8FBFF35D
:1049D0006F8F00BF00BFFEE71448006810B300955A
:1049E00001960294062D15DAFFF7C8FD022808D1BA
:1049F0000023424669460D480068FFF7F9FB8146EF
:104A000010E000231A46694608480068FFF7F0FBEB
:104A1000814607E000233A46694604480068FFF7EC
:104A2000BBFC81464846BDE8FE83000054040020DC
:104A30000000000000000000000000000000000076
:104A4000000000F80000000000000033300000000B
:104A500000100C06100C0600000000000000000012
:104A600040C07840C0784000043F04043F04040084
:104A7000007088FC08300000001820FF211E000094
:104A8000F008F000E018000000211C031E211E00A9
:104A900000F00888700000001E212324192721102F
:104AA00010160E00000000000000000000000000D2
:104AB000000000E018040200000000071820400079
:104AC00000020418E0000000004020180700000069
:104AD000404080F0804040000202010F01020200CD
:104AE000000000F0000000000101011F01010100B1
:104AF000000000000000000080B070000000000016
:104B0000000000000000000000010101010101019E
:104B10000000000000000000003030000000000035
:104B2000000000008060180400601806010000000A
:104B300000E010080810E000000F102020100F0007
:104B4000001010F8000000000020203F202000008E
:104B500000700808088870000030282422213000E6
:104B600000300888884830000018202020110E00EE
:104B70000000C02010F8000000070424243F240097
:104B800000F80888880808000019212020110E006C
:104B900000E0108888180000000F112020110E007E
:104BA00000380808C83808000000003F0000000076
:104BB0000070880808887000001C222121221C0037
:104BC00000E010080810E0000000312222110F0060
:104BD000000000C0C00000000000003030000000F5
:104BE0000000008000000000000080600000000065
:104BF000000080402010080000010204081020007E
:104C000040404040404040000404040404040400C8
:104C1000000810204080000000201008040201005D
:104C2000007048080808F00000000030360100005D
:104C3000C030C828E810E0000718272423140B0010
:104C40000000C038E0000000203C2302022738208A
:104C500008F8888888700000203F202020110E006E
:104C6000C030080808083800071820202010080065
:104C700008F808080810E000203F202020100F004E
:104C800008F88888E8081000203F2020232018001A
:104C900008F88888E8081000203F20000300000082
:104CA000C03008080838000007182020221E020023
:104CB00008F808000008F808203F210101213F20E2
:104CC000000808F8080800000020203F202000000D
:104CD00000000808F8080800C08080807F000000FD
:104CE00008F888C028180800203F20012638200036
:104CF00008F8080000000000203F2020202030009D
:104D000008F8F800F8F80800203F003F003F2000B6
:104D100008F830C00008F808203F200007183F00BE
:104D2000E01008080810E0000F10202020100F00ED
:104D300008F808080808F000203F210101010000E0
:104D4000E01008080810E0000F18242438504F0025
:104D500008F8888888887000203F2000030C3020E5
:104D600000708808080838000038202121221C0023
:104D7000180808F8080818000000203F200000006C
:104D800008F808000008F808001F202020201F0055
:104D90000878880000C83808000007380E010000B5
:104DA000F80800F80008F800033C0700073C03007F
:104DB000081868808068180820302C03032C3020E5
:104DC0000838C800C83808000000203F2000000054
:104DD00010080808C83808002038262120201800AC
:104DE000000000FE020202000000007F4040400080
:104DF000000C30C000000000000000010638C000B8
:104E000000020202FE000000004040407F0000005F
:104E10000000040202020400000000000000000084
:104E20000000000000000000808080808080808082
:104E3000000202040000000000000000000000006A
:104E400000008080808000000019242222223F2060
:104E500008F8008080000000003F112020110E00A3
:104E60000000008080800000000E11202020110032
:104E7000000000808088F800000E112020103F20E4
:104E80000000808080800000001F22222222130068
:104E9000008080F0888888180020203F20200000B3
:104EA0000000808080808000006B94949493600068
:104EB00008F8008080800000203F210000203F2073
:104EC00000809898000000000020203F2020000073
:104ED000000000809898000000C08080807F000063
:104EE00008F8000080808000203F24022D30200040
:104EF000000808F8000000000020203F20200000EB
:104F00008080808080808000203F20003F20003F04
:104F10008080008080800000203F210000203F2012
:104F20000000808080800000001F202020201F00C3
:104F3000808000808000000080FFA12020110E00F2
:104F40000000008080808000000E112020A0FF80E3
:104F5000808080008080800020203F212000010090
:104F600000008080808080000033242424241900E5
:104F7000008080E0808000000000001F20200000F2
:104F80008080000000808000001F202020103F2033
:104F9000808080000080808000010E3008060100C3
:104FA00080800080008080800F300C030C300F0068
:104FB00000808000808080000020312E0E31200093
:104FC000808080000080808080818E7018060100C3
:104FD00000808080808080000021302C22213000E1
:104FE00000000000807C020200000000003F404002
:104FF00000000000FF00000000000000FF000000B3
:105000000002027C800000000040403F00000000E1
:10501000000601010202040400000000000000007C
:105020000000000000000000000000000000040478
:10503000040404040004000000140A0A0000000034
:1050400000000000000014143F140A3F0A0A000088
:1050500000041E1505060C14150F0400000012159F
:105060000D0A142C2A1200000000040A0A1E15154D
:1050700009360000000202010000000000000000EC
:105080000020100808080808081020000002040882
:10509000080808080804020000000004150E0E1598
:1050A0000400000000000404041F040404000000C5
:1050B00000000000000000000002020100000000EB
:1050C000001F0000000000000000000000000000C1
:1050D0000002000000100808080404020202010097
:1050E00000000E1111111111110E00000000040634
:1050F00004040404040E000000000E111108040250
:10510000011F000000000E11100C1010110E000005
:105110000000080C0A0A091E0818000000001F0100
:10512000010F1010110E000000000E09010F1111E7
:10513000110E000000001F0908040404040400000C
:1051400000000E11110E1111110E000000000E11C1
:1051500011111E10120E00000000000004000000DB
:10516000000400000000000000040000000404002F
:1051700000201008040204081020000000000000B5
:105180001F00001F0000000000020408102010088B
:105190000402000000000E111108040400040000C5
:1051A00000000E111915151D011E00000000040459
:1051B0000C0A0A1E1233000000000F12120E121207
:1051C000120F000000001E1101010101110E00006C
:1051D00000000F1212121212120F000000001F1214
:1051E0000A0E0A02121F000000001F120A0E0A0215
:1051F0000207000000001C1201013911120C00000E
:1052000000003312121E12121233000000001F049D
:1052100004040404041F000000003E0808080808F5
:1052200008090700000037120A060A0A12370000B0
:105230000000070202020202223F000000001B1BC6
:105240001B1B15151515000000003B1216161A1A27
:105250001217000000000E1111111111110E0000A3
:1052600000000F12120E02020207000000000E11D1
:1052700011111117190E180000000F12120E0A1248
:105280001237000000001E1101060810110F000067
:1052900000001F1504040404040E00000000331273
:1052A00012121212120C000000003312120A0A0C21
:1052B0000404000000001515150E0A0A0A0A000071
:1052C00000001B0A0A04040A0A1B000000001B0A53
:1052D0000A040404040E000000001F09080404026C
:1052E000121F0000001C04040404040404041C0035
:1052F000000202020404080808100000000E08085A
:105300000808080808080E0000040A000000000051
:105310000000000000000000000000000000003F4E
:105320000004000000000000000000000000000079
:10533000000C121C123C000000000302020E1212AC
:10534000120E000000000000001C1202021C0000EF
:1053500000001810101C1212123C00000000000087
:10536000000C121E021C000000003804041E04047D
:10537000041E000000000000003C120C021E221C53
:1053800000000302020E1212123700000000040097
:1053900000060404040E000000000800000C0808C9
:1053A0000808080700000302023A0A0E123700003C
:1053B0000000070404040404041F000000000000AF
:1053C000000F15151515000000000000000F121247
:1053D0001237000000000000000C1212120C000036
:1053E00000000000000F1212120E02070000000061
:1053F000001C1212121C103800000000001B0602D4
:105400000207000000000000001E020C101E000039
:1054100000000004040E0404041800000000000052
:10542000001B1212123C0000000000000037120A9C
:105430000C040000000000000015150E0A0A000010
:1054400000000000001B0A040A1B0000000000000E
:105450000037120A0C04040300000000001E0804B8
:10546000041E0000001808080804080808081800AE
:1054700008080808080808080808080800060404BE
:1054800004080404040406000225180000000000BB
:10549000000000000000000000000000000000000C
:1054A00000000000000000080808080808080000C4
:1054B0001818000000486C241200000000000000D2
:1054C000000000000000002424247F1212127F122A
:1054D000121200000000081C2A2A0A0C1828282A88
:1054E0002A1C080800000022251515152A585454B6
:1054F000542200000000000C1212120A7625291115
:10550000916E000000060604030000000000000089
:1055100000000000004020101008080808080810CB
:10552000102040000002040808101010101010088D
:10553000080402000000000008086B1C1C6B08082F
:105540000000000000000000080808087F080808A4
:105550000800000000000000000000000000000043
:10556000060604030000000000000000FE0000002A
:10557000000000000000000000000000000000002B
:10558000060600000000804040202010100808049B
:1055900004020200000000182442424242424242F9
:1055A00024180000000000080E0808080808080871
:1055B000083E00000000003C424242202010080447
:1055C000427E00000000003C424220182040404241
:1055D000221C0000000000203028242422227E20EB
:1055E000207800000000007E0202021A264040429D
:1055F000221C0000000000382402021A2642424207
:10560000241800000000007E22221010080808085C
:10561000080800000000003C424242241824424294
:10562000423C0000000000182442424264584040BE
:10563000241C0000000000000000181800000000FA
:105640001818000000000000000000080000000022
:10565000000808040000004020100804020408109C
:10566000204000000000000000007F0000007F00DC
:105670000000000000000002040810204020100874
:10568000040200000000003C42424640201010008E
:10569000181800000000001C225A555555552D427F
:1056A000221C00000000000808181414243C2242A8
:1056B00042E700000000001F2222221E2242424236
:1056C000221F00000000007C424201010101014252
:1056D000221C00000000001F22424242424242427D
:1056E000221F00000000003F4212121E121202424E
:1056F000423F00000000003F4212121E121202023E
:10570000020700000000003C222201010171212259
:10571000221C0000000000E7424242427E42424218
:1057200042E700000000003E0808080808080808D2
:10573000083E00000000007C101010101010101027
:105740001010110F0000007722120A0E0A12122206
:105750002277000000000007020202020202020299
:10576000427F000000000077363636362A2A2A2A81
:105770002A6B0000000000E346464A4A5252526239
:10578000624700000000001C22414141414141416B
:10579000221C00000000003F424242423E02020240
:1057A000020700000000001C2241414141414D53CD
:1057B000321C60000000003F4242423E1212222290
:1057C00042C700000000007C424202041820404210
:1057D000423E00000000007F490808080808080849
:1057E000081C0000000000E742424242424242429E
:1057F000423C0000000000E7424222242414141816
:10580000080800000000006B4949494955553622F7
:1058100022220000000000E7422424181818242443
:1058200042E700000000007722221414080808084C
:10583000081C00000000007E212010100804044213
:10584000423F00000078080808080808080808080F
:10585000080878000000020204040808081010205C
:1058600020204040001E10101010101010101010BA
:1058700010101E000038440000000000000000006E
:105880000000000000000000000000000000000018
:10589000000000FF000608000000000000000000FB
:1058A00000000000000000000000003C427844427C
:1058B00042FC0000000000030202021A264242429B
:1058C000261A000000000000000000384402020216
:1058D00044380000000000604040407844424242AA
:1058E00064D80000000000000000003C427E02027C
:1058F000423C0000000000F08808087E0808080804
:10590000083E0000000000000000007C22221C0273
:105910003C42423C000000030202023A464242423C
:1059200042E700000000000C0C00000E0808080808
:10593000083E000000000030300000382020202009
:105940002020221E0000000302020272120A161218
:10595000227700000000000E080808080808080860
:10596000083E0000000000000000007F929292922A
:1059700092B70000000000000000003B4642424297
:1059800042E70000000000000000003C42424242AA
:10599000423C0000000000000000001B2642424282
:1059A000221E02070000000000000078444242422C
:1059B000447840E000000000000000774C0404043C
:1059C000041F0000000000000000007C42023C4078
:1059D000423E0000000000000008083E08080808D9
:1059E0000830000000000000000000634242424214
:1059F00062DC000000000000000000E742242414E4
:105A00000808000000000000000000EB494955555F
:105A10002222000000000000000000762418181860
:105A2000246E000000000000000000E7422424145F
:105A300018080807000000000000007E2210080877
:105A4000447E000000C020202020201020202020A4
:105A50002020C00010101010101010101010101086
:105A60001010101000060808080808100808080898
:105A7000080806000C32C200000000000000000010
:105A80000000000000103C003C00011BFFFFFFFF76
:105A9000FFFFFFFFFFFFFFFFFFFFFFFFFFFFFFFF16
:105AA000FFFFFFFFFFFFFFFFFFFFFFFFFFFFFFFF06
:105AB000FFFFFFFFFFFFFFFFFFFFFFFFFFFFFFFFF6
:105AC000FFFFFFFFFFFFFFFFFFFFFFFFFFFFFFFFE6
:105AD000FFFFFFFFFFFFFFFFFFFFFFFFFFFFFFFFD6
