:020000040800F2
:1000000090BE0120550200085D0200085F02000852
:100010006102000863020008650200080000000099
:100020000000000000000000000000009D0100082A
:100030006902000800000000F1010008A12000088A
:100040006F0200086F0200086F0200086F020008CC
:100050006F0200086F0200086F0200086F020008BC
:100060006F0200086F020008490800086F020008CC
:100070006F0200086F0200086F0200086F0200089C
:100080006F0200086F0200086F0200086F0200088C
:100090006F0200086F0200086F0200085508000890
:1000A0006F0200086F0200086F0200086F0200086C
:1000B0006F0200086F0200086F0200086F0200085C
:1000C0006F0200086F0200086F0200086F0200084C
:1000D0006F020008D52500085D2600086F020008A1
:1000E0003D0800086F0200086F0200086F02000858
:1000F0006F0200086F0200086F0200086F0200081C
:100100006F0200086F0200086F0200086F0200080B
:100110006F0200086F0200086F0200086F020008FB
:100120006F0200086F0200086F0200086F020008EB
:100130006F0200086F0200086F0200086F020008DB
:100140006F0200086F0200086F0200086F020008CB
:100150006F0200086F0200086F0200086F020008BB
:100160006F0200086F0200086F0200086F020008AB
:100170006F0200086F0200086F0200086F0200089B
:100180006F0200086F020008DFF80CD000F0D8F80A
:10019000004800476933000890BE01202A4B1968C7
:1001A0000868B0E8F04F80F30988BFF36F8F4FF015
:1001B000000080F3118870470000000006480068C6
:1001C000006880F3088862B661B6BFF34F8FBFF353
:1001D0006F8F00DF00BF00BF08ED00E0DFF80C000C
:1001E000016841F470010160704700BF88ED00E0D4
:1001F000EFF30980BFF36F8F134B1A681EF0100FD7
:1002000008BF20ED108A20E9F04F106008B44FF0CD
:10021000500080F31188BFF34F8FBFF36F8F04F04E
:100220008FFC4FF0000080F3118808BC1968086843
:10023000B0E8F04F1EF0100F08BFB0EC108A80F34A
:100240000988BFF36F8F7047F0860020EFF30580B9
:10025000704700000648804706480047FEE7FEE773
:10026000FEE7FEE7FEE7FEE7FEE7FEE7FEE7FEE766
:10027000B12000088901000840EA01039B0703D070
:1002800009E008C9121F08C0042AFAD203E011F8D5
:10029000013B00F8013B521EF9D27047D2B201E097
:1002A00000F8012B491EFBD270470022F6E710B57B
:1002B00013460A4604461946FFF7F0FF204610BDD4
:1002C00010B5002200E0521C835C8C5CA34201D17B
:1002D000002BF8D1D8B2E1B2401A10BD2DE9F05F81
:1002E0000546002092469B468846064681464024A5
:1002F0001BE0284641464746224600F042F8534656
:100300005A46C01A914110D311461846224600F0B1
:1003100029F82D1A67EB01084F46224601200021DB
:1003200000F020F817EB00094E41201EA4F1010453
:10033000DFDC484631462A464346BDE8F09F0000D0
:10034000064C074D06E0E06840F0010394E8070022
:1003500098471034AC42F6D3FFF71AFF1C78000818
:100360003C780008202A04DB203A00FA02F1002041
:1003700070479140C2F1200320FA03F319439040E3
:100380007047202A04DB203A21FA02F0002170474E
:1003900021FA02F3D040C2F12002914008431946ED
:1003A000704770B58D1810F8014B14F0030201D19D
:1003B00010F8012B231106D110F8013B03E010F8CF
:1003C000016B01F8016B521EF9D1ABB110F8012B92
:1003D00004F00C048A1A0C2C03D0A2EB84129B1C90
:1003E00008E010F8014BA2EB0422F8E712F8014BE9
:1003F00001F8014B5B1EF9D5A942D4D3002070BD92
:1004000000B58FB00121080201F0E0F90121084692
:1004100001F0BCF90121042001F0B8F901200D9090
:100420008DF8380000208DF83A008DF83B008DF8EB
:1004300039000DA9174800F097FA01200B9003200E
:100440008DF8300000208DF833000BA9124800F021
:100450008BFA0020099007904FF48030089000201C
:100460000A9007A800F028F8002001908DF80800F5
:100470008DF809000590039001208DF8180001A95E
:10048000064800F03FF80121044800F009F80FB0D9
:1004900000BD0000000802400000024000200140B2
:1004A00021B1826842F00102826003E0826822F09A
:1004B00001028260704700000021084A1168084A62
:1004C0001140D0E900231A4383681A43C3681A43D2
:1004D0001143044AC2F8041370470000042301408A
:1004E000E030FCFF002001400146C86C80B270473C
:1004F0000246002013680B400BB1012000E00020F1
:100500007047000030B50246002000235068104CB0
:1005100020400D790C6844EA05242043506090681F
:100520000C4C2040D1E903542C438D682C434D7969
:1005300044EA450420439060D06A20F470000C7DAA
:10054000641EE4B2234340EA0350D06230BD000091
:10055000FFFEFFFCFDF7FFC0F0B504460D4600208E
:100560000021092D11DDE068A5F10A0606EB46071A
:10057000072606FA07F18843A5F10A0606EB4606A8
:1005800003FA06F10843E0600CE0206905EB45073B
:10059000072606FA07F1884305EB450603FA06F13C
:1005A00008432061072A0FDA606B561E06EB8607A8
:1005B0001F2606FA07F18843561E06EB860605FA43
:1005C00006F10843606322E00D2A0FDA206BD61F84
:1005D00006EB86071F2606FA07F18843D61F06EBAF
:1005E000860605FA06F10843206310E0E06AA2F1EE
:1005F0000D0606EB86071F2606FA07F18843A2F1CF
:100600000D0606EB860605FA06F10843E062F0BD2A
:10061000816841F080418160704700001CB5012174
:10062000022001F0B3F84FF48060009001208DF8B3
:10063000040000208DF8060001208DF8070000203E
:100640008DF805006946054800F08EF900224FF448
:100650008061024800F004FA1CBD00000004024062
:1006600010B5062407E04FF48061054800F0F4F966
:10067000C82002F089FB2000A4F10104F3D110BDD1
:100680000004024010B501229102024800F0E8F98E
:1006900010BD0000000402401CB50121084601F015
:1006A00075F80020009001900820009001208DF83E
:1006B00004008DF8060000208DF807006946044804
:1006C00000F052F90821024800F0C4F91CBD0000F6
:1006D000000002401CB5002000900190082000900E
:1006E00000208DF804008DF807006946014800F0ED
:1006F0003BF91CBD000402401CB500200090019095
:100700000820009001208DF804008DF806000020DC
:100710008DF807006946024800F026F91CBD00006C
:100720000004024070B50024002500BF23E06006ED
:10073000040E00BF0821124800F081F90028F9D109
:1007400000BF08210E4800F07AF90028F9D00821EE
:100750000B4800F074F910B11E2002F035FB08219F
:10076000074800F06CF910B144F0010401E004F016
:10077000FE04681CC5B2082DD9DB204670BD000000
:10078000000002402DE9F04105460E461746984606
:10079000FFF7B2FF0821274800F05AF9142002F0B1
:1007A000F3FA0821234800F055F9142002F00CFB5D
:1007B000FFF790FF00BF08211E4800F040F9002815
:1007C000F9D100BF08211B4800F039F90028F9D001
:1007D00000BF0821174800F032F90028F9D10024A1
:1007E00004E0FFF79FFF14490855641C052CF8DB53
:1007F000114800781049497808440F49897808441D
:100800000D49C97808440C49097988420FD10A4832
:100810000078287008484078307007488078387031
:100820000548C07888F800000020BDE8F08101206C
:10083000FBE7000000000240DA00002010B54FF492
:10084000005000F01BF810BD10B5102000F016F895
:1008500010BD000010B52021074800F0F0F810B9D5
:10086000202000F00BF84021034800F0E8F810B910
:10087000402000F003F810BD00100240014908605C
:1008800070470000143C0140002123498279002A6E
:100890003AD00A46126803689A430B461A600A1D4A
:1008A000126803689A430B1D1A60027911440A68A2
:1008B00003681A430A60184A0832126803689A43A8
:1008C000154B08331A601A1D126803689A43124BBD
:1008D0000C331A604279102A0ED11A1F126803686D
:1008E0001A430D4B08331A601A1D126803681A4325
:1008F000094B0C331A600DE00749427911440A682C
:1009000003681A430A6005E0027911440A68036823
:100910009A430A6070470000003C014010B5012175
:10092000084600F033FF10BD10B5044621460248CA
:1009300001F057FD10BD00000018004010B5002068
:10094000FFF7F2FF4FF4FA7002F01EFA10BD00003C
:1009500010B50121034801F08FFC42F21070FFF73F
:10096000E3FF10BD00180040F0B50A460021002347
:10097000002400BF3DE0012505FA01F3156805EAF2
:1009800003049C4234D105684F000326BE40B543A2
:10099000056015794E00B540066835430560157948
:1009A000012D02D01579022D16D185684F0003263E
:1009B000BE40B543856055794E00B54086683543E5
:1009C0008560456801268E40B54345604568967947
:1009D0008E40B6B235434560C5684F000326BE4021
:1009E000B543C560D5794E00B540C6683543C5608E
:1009F000491C1029BFD3F0BDF0B5002300244D07DA
:100A0000ED0E02FA05F3CE1000F1200555F8265040
:100A10004E07F70E0F26BE40B543CF1000F120065B
:100A200046F82750CE1000F1200555F8265045EA2B
:100A30000304CE1000F1200545F82640F0BD024623
:100A4000002013690B400BB1012000E0002070472B
:100A5000418370470183704742694A404261704751
:100A60000AB1018300E041837047000010B5802186
:100A70000A48FFF7EFFF40210848FFF7EBFF00F0BF
:100A800057F880210548FFF7E3FF00F051F84021B7
:100A90000248FFF7DDFF00F04BF810BD00040240F4
:100AA00010B580210648FFF7D3FF40210448FFF727
:100AB000D1FF00F03DF880210148FFF7CBFF10BDCA
:100AC0000004024010B580210848FFF7C3FF00F082
:100AD0002FF840210548FFF7BDFF00F029F840211D
:100AE0000248FFF7B5FF00F023F810BD00040240F4
:100AF0001CB50121022000F049FEC0200090012019
:100B00008DF804008DF8060000208DF807008DF8A0
:100B1000050069460548FFF727FF40210348FFF716
:100B200099FF80210148FFF795FF1CBD000402409A
:100B30000A2000BF0100A0F10102D0B2FAD1704733
:100B400000B585B00121880300F040FE012110208E
:100B500000F01CFE1020039000208DF810000120F2
:100B60008DF8130000208DF8110003A91248FFF73B
:100B7000FBFE0421084601F011F91020019001202C
:100B80008DF80A0000208DF808000C208DF809006F
:100B900001A8FFF779FE0A208DF8000001208DF8EA
:100BA000030000208DF801008DF80200684600F077
:100BB0009BFA05B000BD00000010024000B585B0F2
:100BC0000121880300F002FE0121102000F0DEFD6B
:100BD0002020039000208DF8100001208DF81300D4
:100BE00000208DF8110003A91248FFF7BDFE052172
:100BF000042001F0D3F82020019001208DF80A0094
:100C000000208DF808000C208DF8090001A8FFF7DE
:100C10003BFE17208DF8000001208DF80300002016
:100C20008DF801008DF80200684600F05DFA05B00D
:100C300000BD00000010024000B585B0012188030E
:100C400000F0C4FD0121102000F0A0FD4020039021
:100C500000208DF8100001208DF8130000208DF881
:100C6000110003A91248FFF77FFE0621042001F0BE
:100C700095F84020019001208DF80A0000208DF8A1
:100C800008000C208DF8090001A8FFF7FDFD1720D2
:100C90008DF8000001208DF8030000208DF8010080
:100CA0008DF80200684600F01FFA05B000BD000094
:100CB0000010024000B585B00121880300F086FDD8
:100CC0000121042000F062FD4FF400500390002049
:100CD0008DF8100001208DF8130000208DF8110010
:100CE00003A91348FFF740FE0D21022001F056F83A
:100CF0004FF40050019001208DF80A0000208DF87B
:100D000008000C208DF8090001A8FFF7BDFD282080
:100D10008DF8000001208DF8030000208DF80100FF
:100D20008DF80200684600F0DFF905B000BD000054
:100D3000000802401CB50120094940238022CDE96A
:100D400000100021084600F06FFC01200C23054A2A
:100D500000210090262000F0D2FC00F011FB1CBD09
:100D6000E0140020CB88002008B5012010230022C9
:100D700011460090104600F0D5FB012010230246DA
:100D800000210090184600F0CDFB012010230CA29A
:100D900018210090142000F0B2FC012008230AA2C0
:100DA00030210090002000F0AAFC0120082309A2B5
:100DB00038210090002000F0A2FC00F0E1FA08BD0C
:100DC0005469616E4D59000076657273696F6E3AB1
:100DD000312E3000646174653A323032332D313255
:100DE0002D3136001CB50121042000F0CFFC4FF45A
:100DF0000050009000208DF8040001208DF80700BD
:100E000000208DF8050069460148FFF7ADFD1CBDC7
:100E1000000802400CE000F08BF8064880781E289D
:100E200003DA05484078054908600A2003F0DCFC35
:100E3000F1E70000DA000020EA850020A8824042A5
:100E40001CB50121102000F0A1FC702000900020B2
:100E50008DF8040001208DF8070000208DF80500B2
:100E600069460248FFF780FD1CBD000000100240EB
:100E70001CB50121102000F089FC4FF4E0600090C7
:100E800001208DF8040000208DF8060003208DF865
:100E9000050001208DF8070069460448FFF764FD4E
:100EA0004FF4E0610148FFF7D5FD1CBD0010024082
:100EB00010B50446012C04D0022C08D0032C12D10A
:100EC0000BE04FF480710948FFF7C4FD0CE04FF4CC
:100ED00000710648FFF7BEFD06E04FF4806103484D
:100EE000FFF7B8FD00E000BF00BF10BD00100240DA
:100EF00010B50446012C04D0022C08D0032C12D1CA
:100F00000BE04FF480710948FFF7A2FD0CE04FF4AD
:100F100000710648FFF79CFD06E04FF4806103482E
:100F2000FFF796FD00E000BF00BF10BD00100240BB
:100F300008B503F053F83D490870084600780028CA
:100F400059D00846007801280ED139480078072882
:100F50000AD038483649097800EBC1004078344956
:100F6000087000F007F946E03048007802280ED1FA
:100F70002F48007807280AD02E482D49097800EB21
:100F8000C10080782A49087000F0F4F833E027485F
:100F9000007803280DD100202749087025482449EE
:100FA000097800EBC100C0782149087000F0E2F830
:100FB00021E01E480078012809D11D480078072843
:100FC00005D11D480078401C1B49087013E01748E4
:100FD000007802280FD11648007807280BD117484F
:100FE00015490978405C08B9012000E00020134948
:100FF000114A127888541249002000F037FD104839
:10100000807800900E48437802780EA1114801F0D4
:101010003FFC08480649097800EBC10040680E49CA
:10102000086008460068804708BD0000E085002091
:10103000E8850020FC850020E9850020EA85002065
:10104000EE850020253032643A253032643A25306E
:1010500032640000CB880020F88500203EB541F6C0
:10106000FF740121080700F0A1FB012000F088FBBC
:10107000002000F055FD45F25001884231D001209A
:1010800000F048FC04E0601C84B20A2001F07CFE01
:10109000412000F01FFC0028F5D00CB901203EBD16
:1010A0004FF4807000F052FC012000F049FC7F20DA
:1010B0000190FF20029000200090684600F0FEFCA6
:1010C00000231A4619460C2000F018FE06231E22A3
:1010D0000821182000F000FE45F25001002000F029
:1010E0004FFE0020DBE7000070B5002100230F2237
:1010F000C4781CB3174C246804F4E064C4F5E064BD
:10110000C4F30721C1F10404E3B20A4144789C40CE
:10111000E1B28478144021430C07210E0E4C05786F
:101120006155047804F01F050124AC4005786D1169
:10113000AD0005F1E025C5F8004109E0047804F0B0
:101140001F050124AC40054D0678761145F8264070
:1011500070BD00000CED00E000E400E080E100E084
:1011600002490143024A1160704700000000FA057D
:101170000CED00E070B500240CE0002506E0002036
:10118000074901EBC5010855681CC5B2802DF6DB87
:10119000601CC4B2082CF0DB00F0F2F870BD000057
:1011A000DF880020F0B514460B46CF1701EB5777C8
:1011B000C7F3C702CF1701EB5777FF10A1EBC707A3
:1011C000FEB20123B340DDB24CB1134B03EBC003BD
:1011D0009B5C2B43104F07EBC007BB541AE00E4B30
:1011E00003EBC0039B5CDB430B4F07EBC007BB5417
:1011F000094B03EBC0039B5C2B43074F07EBC00776
:10120000BB54054B03EBC0039B5CDB43024F07EB76
:10121000C007BB54F0BD0000DF8800201CB50121D1
:101220000A2000F0B3FA8020009001208DF804001D
:101230008DF8060003208DF8050001208DF80700C9
:1012400069464D48FFF790FB1020009000208DF874
:10125000060069464948FFF787FB402000900120BF
:101260008DF804008DF8060003208DF8050001209C
:101270008DF8070069464048FFF776FB10213F488C
:10128000FFF7E6FBC82001F07FFD10213B48FFF788
:10129000E1FB0021AE2000F057FA0021084600F0E3
:1012A00053FA0021102000F04FFA0021402000F0F6
:1012B0004BFA0021812000F047FA0021CF2000F0F6
:1012C00043FA0021A12000F03FFA0021C82000F0DD
:1012D0003BFA0021A62000F037FA0021A82000F0F8
:1012E00033FA00213F2000F02FFA0021D32000F034
:1012F0002BFA0021084600F027FA0021D52000F043
:1013000023FA0021802000F01FFA0021D92000F0EC
:101310001BFA0021F12000F017FA0021DA2000F07A
:1013200013FA0021122000F00FFA0021DB2000F058
:101330000BFA0021402000F007FA0021202000F0E5
:1013400003FA0021022000F0FFF900218D2000F0B7
:10135000FBF90021142000F0F7F90021A42000F08F
:10136000F3F90021A62000F0EFF9FFF703FF0021B9
:10137000AF2000F0E9F91CBD00040240000C02405F
:1013800070B500242BE004F1B001C8B2002100F0D8
:10139000DBF90021084600F0D7F90021102000F009
:1013A000D3F9FFF763FB782000F018FDFFF78AFB05
:1013B000402000F013FDFFF785FB002509E00949F7
:1013C00001EBC501085D00F009FDFFF77BFB681C20
:1013D000C5B2802DF3DBFFF763FB601CC4B2082CA1
:1013E000D1DB70BDDF8800202DE9FE4F074688461F
:1013F00092461C460197CDF80080082C02D14FF090
:1014000006091FE02046E31704EB5373DB10214667
:101410004FEAE47C04EB5C7C4FEAEC0CA4EBCC0CD4
:10142000BCF1000F02D04FF0010C01E04FF0000CB6
:101430006344224604EBD27C4FEA6C0C03FB0CF3B2
:1014400003F0FF09AAF12000C6B200255EE0082CD7
:1014500007D106EB46002F4901EB400010F805B01C
:101460001DE00C2C07D106EB46002B4901EB800058
:1014700010F805B013E0102C05D1284800EB061039
:1014800010F805B00BE0182C07D106EBC600244974
:1014900001EB800010F805B001E0BDE8FE8F0020F0
:1014A00002901CE00BF0010028B1414638460C9A2E
:1014B000FFF778FE09E00C9808B9012000E0002051
:1014C000024641463846FFF76DFE4FEA6B0B08F1C6
:1014D000010000F0FF080298401CC0B20290029880
:1014E0000828DFDB781CC7B2082C0BD004EBD471C2
:1014F0004A100199791A8A4204D1019F0098083054
:10150000C0B20090DDF80080681CC5B24D459EDB7E
:1015100000BFC2E70C5A0008345C0008A86000084D
:10152000986600082DE9FC4F0746884616461C467B
:10153000BB46CDF804802046E21704EB5272D2106D
:101540002146E31704EB5373DB10A4EBC3030BB189
:10155000012300E000231A44624392B20092002566
:1015600055E0102C05D12C4800EB461010F805A0D2
:101570001BE0182C07D106EBC600284901EBC00080
:1015800010F805A011E0202C05D1254800EBC6106D
:1015900010F805A009E0402C05D1224800EB4620B8
:1015A00010F805A001E0BDE8FC8F4FF000091CE039
:1015B0000AF0010028B1414638460B9AFFF7F2FDC8
:1015C00009E00B9808B9012000E0002002464146DE
:1015D0003846FFF7E7FD4FEA6A0A08F1010000F01C
:1015E000FF0809F1010000F0FF09B9F1080FDFDB86
:1015F000781CC7B2A7EB0B00A04204D15F4601984C
:101600000830C0B20190DDF80480681C85B20098F3
:101610008542A6DB00BFC6E7F473000854750008D6
:101620009C7500081C7600082DE9FF4F05460E4604
:1016300017461C46DDF838904FF0000A0095B34677
:101640002046E21704EB5272D2102146E31704EB56
:101650005373DB10A4EBC3030BB1012300E00023A1
:101660001A44D4B24FF0000845E0002003903BE05C
:101670000D9810F80A0002900AF101001FFA80FA92
:10168000002001901DE0029800F0010028B14A46B8
:1016900031462846FFF786FD0AE0B9F1000F01D177
:1016A000012000E00020024631462846FFF77AFD7F
:1016B000029840100290701CC6B20198401CC0B243
:1016C000019001980828DEDB681CC5B20098281A32
:1016D000B84204D1009D0BF1080000F0FF0B5E46FC
:1016E0000398401CC0B203900398B842C0DB08F1D5
:1016F000010000F0FF08A045B7DBBDE8FF8F2DE932
:10170000F84106460F4614461D46DDF81C8013E0DE
:10171000CDF8008022782B4639463046FFF764FE2C
:10172000082D02D1B01DC6B205E0284605EBD071E8
:1017300006EB6101CEB2641C2078202802DB207801
:101740007E28E5DDBDE8F88170B505460C46FFF75B
:101750008DF9782000F042FBFFF7B4F91CB140206E
:1017600000F03CFB02E0002000F038FBFFF7AAF994
:10177000284600F033FBFFF7A5F9FFF791F970BD9C
:10178000014908627047000000000E4229B1064A74
:1017900012680243044B1A6004E0034A1268824351
:1017A000014B1A60704700003038024029B1064AE8
:1017B00012680243044B1A6004E0034A1268824331
:1017C000014B1A60704700004038024029B1064AB8
:1017D00012680243044B1A6004E0034A1268824311
:1017E000014B1A607047000044380240F0B50021F8
:1017F00000220024022500260223324F3F6807F012
:101800000C0121B1042905D0082937D105E02E4F5C
:10181000076036E02D4F076033E02A4F3F1F3F68D7
:10182000C7F38056274F3F1F3F6807F03F036EB155
:10183000264FB7FBF3F7DFF88CC0ACF1040CDCF8F3
:1018400000C0CCF3881C07FB0CF40CE01E4FB7FB68
:10185000F3F7DFF870C0ACF1040CDCF800C0CCF397
:10186000881C07FB0CF4174F3F1F3F68C7F3014765
:101870007F1C7D00B4FBF5F7076002E0124F0760A4
:1018800000BF00BF0F4F3F6807F0F0010909104F7C
:101890007A5C0768D74047600A4F3F6807F4E05119
:1018A000890A0B4F7A5C4768D7408760054F3F68CD
:1018B00007F46041490B064F7A5C4768D740C76020
:1018C000F0BD0000083802400024F40000127A0045
:1018D0000000002010B501460022002300204A111C
:1018E000012A02D10A4C236808E0022A03D1084CDD
:1018F0007034236802E0064C7434236801F01F0240
:10190000012494401C400CB1012000E0002010BDD7
:10191000003802400021094A11701170012802D0DC
:10192000042808D103E00121044A117004E00521D4
:10193000024A117000E000BF00BF704770380240DB
:1019400001490860704700003C0E4742002100F446
:101950004072B2F5407F08D1094A116821F4F811AC
:10196000084A02401143064A1160054A683212686B
:10197000C0F30B031A43024B68331A607047000030
:1019800008380240FFFCFF0F014600BF080900EBCA
:101990008000420001F00F001044C0B270470146C1
:1019A000002204E0501CC2B2A1F10A00C1B20A290F
:1019B000F8DA100741EA10607047000008B500220D
:1019C000009200200021104A126802F04002CAB9B9
:1019D000421E0D4B1A6000BF0B4A126802F0400114
:1019E000009A521C0092009AB2F5803F01D0002963
:1019F000F2D0054A126802F040020AB1012002E06A
:101A0000002000E0012008BD0C28004003480068C9
:101A100020F0800001490860704700000C28004059
:101A200070B506460C4600250E4800680E4900EACF
:101A30000105280CE070C5F30420607005F03F003C
:101A4000A070C5F3423020705EB9E078FFF79CFFCC
:101A5000E0706078FFF798FF6070A078FFF794FF60
:101A6000A07070BD042800403FFFFF0070B506461F
:101A70000C4600250F4800680F4900EA0105C5F330
:101A800005402070C5F30620607005F07F00A0704F
:101A900005F48000000CE0705EB92078FFF774FF59
:101AA00020706078FFF770FF6070A078FFF76CFF20
:101AB000A07070BD002800407F7F7F0030B50446D5
:101AC0000025CA201549086053200860FFF776FFFB
:101AD00000B91DE011481C38006820F040000F4993
:101AE0001C39086008460068216808430B491C3906
:101AF00008600A491439A068086008460068A1888F
:101B000040EA0140054914390860FFF77FFF0125CD
:101B1000FF2002490860284630BD0000242800400C
:101B200008B501460020009004480090009800EBA2
:101B3000810000900098006808BD00005028004017
:101B40002DE9F04105460C46002600274DB9607886
:101B500000F01000102804D1607820F010000A3046
:101B6000607005B908E06078FFF70EFF0646A078C0
:101B7000FFF70AFF064600BF55B1E0780004617820
:101B800040EA0120A1780843217840EA413611E07B
:101B9000E078FFF704FF4FEA00486078FFF7FFFEA8
:101BA00048EA0028A078FFF7FAFE48EA0008207803
:101BB00048EA4036CA201249086053200860FFF7FF
:101BC000FDFE08B9002714E00E4830400C492039CA
:101BD0000860FFF71BFF0A481C38006800F020006F
:101BE00030B900F09DF808B9002702E0012700E0B5
:101BF0000127FF20024908603846BDE8F081000057
:101C0000242800403FFFFF002DE9F04105460C4627
:101C1000002600274DB92E48006800F0400000B1B2
:101C200002E00020E07000BF0DE02948006800F0ED
:101C3000400020B12078FFF7A7FE064602E0002012
:101C4000E07000BF00BF55B120780004617840EA21
:101C50000120A1780843E17840EA014611E02078AC
:101C6000FFF79DFE4FEA00486078FFF798FE48EACC
:101C70000028A078FFF793FE48EA0008E07848EAD9
:101C80000046CA2012491C31086053200860FFF743
:101C900095FE08B9002713E00E4830400C4908397A
:101CA0000860FFF7B3FE0A48006800F0200030B972
:101CB00000F036F808B9002702E0012700E001270C
:101CC000FF2003491C3108603846BDE8F081000060
:101CD000082800407F7F7F00F8B504460D46174670
:101CE0001E468DF802708DF801508DF800608DF859
:101CF000034069460020FFF723FFF8BDF8B504460E
:101D00000D4617461E468DF800408DF801508DF89F
:101D100002708DF8036069460020FFF775FFF8BD7B
:101D200008B50022009200200021CA22134B1A603D
:101D300053221A60114A183A126822F0A0020F4B7F
:101D4000183B1A6000BF0D4A183A126802F02001D1
:101D5000009A521C0092009AB2F5003F01D000296F
:101D6000F1D0064A183A126802F020020AB10120A6
:101D700000E00020FF22014B1A6008BD242800402B
:101D800008B500220092044A0092009A02EB8002F9
:101D90000092009A116008BD5028004030B5002222
:101DA0008B071C0F0F2303FA04F20B4B8C1053F814
:101DB00024309343084C8D1044F8253023468C1072
:101DC00053F824308C07240F00FA04F42343024C08
:101DD0008D1044F8253030BD0838014070B50446F8
:101DE00000251BE004F0800020B180210D48FEF7A3
:101DF00031FE03E080210B48FEF72AFEFEF798FE35
:101E000040210848FEF726FEFEF792FE40210548D5
:101E1000FEF71EFE6006040E681CC5B2082DE1DB4D
:101E200070BD00000004024038B50120102338A224
:101E3000002100902020FFF762FC0120102336A231
:101E4000194600902020FFF75AFC0120102334A2ED
:101E5000202100900846FFF752FC0120102332A2F7
:101E6000302100902020FFF74AFC012000903048EC
:101E70000078401E0007010E10232EA20020FFF75D
:101E80003EFC2B490878C11700EB91718910A0EB3B
:101E90008101274A11700120009010460078000748
:101EA000010E102325A20020FFF729FC002416E0D4
:101EB0002448005D48B9012000902007010E10233E
:101EC00021A26820FFF71BFC08E0012000902007FA
:101ED000010E10231DA26820FFF711FC641C042CC6
:101EE000E6DB1848C078012805D1012118480068B0
:101EF00002F09AFE08E001211548006802F066FE33
:101F00000021144800F06DFAFFF73AFA38BD0000DE
:101F10006C656431000000006265657000000000BF
:101F200066616E73000000006C65643200000000A2
:101F3000E985002020202020000000002D2D3E20DB
:101F400000000000EA8500204F464600204F4E006A
:101F5000E4850020000001400CB5002001900090B5
:101F60003448006840F480303249086000BF31488E
:101F7000006800F4003000900198401C0190009827
:101F800018B90198B0F5A04FF1D12A48006800F4C3
:101F9000003010B10120009001E000200090009876
:101FA000012846D123484030006840F08050214944
:101FB000403108602048006840F440401E490860F5
:101FC0001C48083000681B49083108600846006852
:101FD00040F4004008600846006840F4A0500860E3
:101FE0001648091F0860081F006840F08070091F2C
:101FF000086000BF0F48006800F000700028F9D0AA
:1020000040F205700E4908600A480830006820F068
:1020100003000849083108600846006840F00200E3
:10202000086000BF03480830006800F00C00082872
:10203000F8D10CBD00380240007000400854400741
:10204000003C02401CB50120094940238022CDE913
:10205000001000210846FFF7E7FA01200C23054A8B
:10206000002100902620FFF74AFBFFF789F91CBDED
:10207000E0100020CB880020042808D14FF0E02198
:10208000096941F004014FF0E022116107E04FF0CF
:10209000E021096921F004014FF0E022116170474D
:1020A00010B503F001FA012801D002F0C3FE10BD03
:1020B00010B51548006840F47000134908601348D3
:1020C000006840F001001149086000200F49083104
:1020D00008600E4800680E4908400C4908600D4829
:1020E000091D0860081F006820F48020091F08608F
:1020F000002006490C310860FFF72EFF4FF000600A
:1021000001498039086010BD88ED00E000380240C8
:10211000FFFFF6FE1030002430B58BB005460C46AC
:1021200001210420FFF742FB01210820FFF72EFBCD
:1021300002220F211E48FEF75FFC4FF40040099079
:1021400002208DF8280003208DF8290000208DF84A
:102150002A0001208DF82B0009A91548FEF704FC80
:102160000795A0B2ADF818000020ADF81A00ADF840
:10217000200006A90F4800F039F96020ADF80400EE
:102180000120ADF806000020ADF8100001A90948B3
:1021900000F0DEF80121074800F062F80821054848
:1021A00000F012F90121034800F066F80BB030BDD1
:1021B000000C02400008004000B58BB00121402017
:1021C000FFF7F4FA01210220FFF7E0FA09220F21BC
:1021D0002148FEF711FC002009900A904FF40040BE
:1021E000099002208DF8280001208DF82B00002096
:1021F0008DF8290009A91848FEF7B6FB00200690C3
:10220000079008905320ADF8180044F61F6007901F
:102210000020ADF81A00ADF8200006A90F4800F024
:10222000E5F8142101A8FEF740F86020ADF804009D
:102230000020ADF810000120ADF8060001A9074804
:1022400000F026F80821054800F074F80121034841
:1022500000F006F80BB000BD00040240001800407A
:1022600021B1028842F08002028004E002884FF629
:102270007F731A400280704721B1028842F0010248
:10228000028004E002884FF6FE731A400280704715
:1022900070B5002400220023058C4FF6EF76354000
:1022A0000584028C8388048B48F6FF752C404FF61A
:1022B000FF452C400D884FF6FF7606EA05252C4396
:1022C0004FF6DF752A408D8906EA05152A434D88A9
:1022D00006EA05152A43154DA84202D0144DA8421E
:1022E0001DD14FF67F752A40CD894FF6FF7606EA5D
:1022F00005152A434FF6BF752A408D8806EA051555
:102300002A434FF6FF352B404FF2FF752B400D8AC5
:1023100006EA85052B434D8A06EA85052B43838013
:1023200004838D688563028470BD00000000014055
:10233000000401400A460021018B4FF2FF7319404F
:102340004FF6FF7303EA022319430183704700002D
:1023500070B5002200230024058C4EF6FF76354030
:102360000584038C8488828B48F6FF752A404FF6DB
:10237000FF452A400D884FF6FF7606EA05252A43D9
:102380004DF6FF752B408D8906EA05352B434D88A8
:1023900006EA05352B430A4DA84202D0094DA84252
:1023A00008D14BF6FF752C400D8A4FF6FF7606EAF2
:1023B00085152C43848082838D680564038470BDF9
:1023C00000000140000401400A460021818B4FF2C9
:1023D000FF7319404FF6FF7303EA02231943818309
:1023E00070478163704701647047000000220288D3
:1023F000184B98420ED0184B98420BD0B0F1804F3A
:1024000008D0164B984205D0154B984202D0154B78
:10241000984204D14FF68F731A404B881A43124BDF
:10242000984207D0114B984204D04FF6FF431A4010
:102430000B891A4302804B68C3620B880385054BE6
:10244000984202D0044B984201D18B7A0386012333
:1024500083827047000001400004014000040040F6
:1024600000080040000C0040001000400014004034
:102470001CB50120094940238022CDE9001000212C
:102480000846FFF7D1F801200C23054A00210090EF
:102490002620FFF734F9FEF773FF1CBDE00800208B
:1024A000CB88002000B587B0142102A8FDF7FDFEFF
:1024B0001048028810A102A800F0EAF901201023B8
:1024C0000EA2194600900020FFF719F901201023F1
:1024D00002AA194600903220FFF711F901201023BB
:1024E00008A2302100900020FFF709F9FEF748FF0D
:1024F00007B000BDD2000020256400006C69676849
:10250000743A00007468726573686F6C643A3230B4
:1025100030306C780000000000B587B02048437868
:10252000027820A104A800F0B3F92048437802788B
:102530001CA101A800F0ACF9012010231C4A0021C5
:1025400000902020FFF7DBF80120102319A2194684
:1025500000900020FFF7D3F80120102304AA1946A9
:1025600000903220FFF7CBF80120102313A2202186
:1025700000900020FFF7C3F80120102301AA2021BA
:1025800000903220FFF7BBF8012010230DA230216C
:1025900000900020FFF7B3F8FEF7F2FE07B000BD91
:1025A000CF00002025642E2564000000CC00002010
:1025B000CB88002074656D703A00000068756D6905
:1025C0003A0000007468726573686F6C643A333067
:1025D0002E30000010B540F225511D4800F085F85E
:1025E00010B31B4800F03AF9C4B21A48008800F44E
:1025F0000040C8B91748008800F4804060B10A2C38
:1026000003D000201349088020E01248008840F4DD
:1026100000401049088019E00D2C06D10D480088B3
:1026200040F480400B49088010E00A480088C0F35D
:102630000D0009490C5407480088401C05490880D2
:1026400008460088C72801DD0020088010BD000072
:1026500000100140C8000020E487002010B540F2BF
:102660002551084800F041F818B1064800F0F6F886
:10267000C4B24FF45871034800F00FF8014800F05D
:10268000EDF810BD0044004001F40072B2F5007F87
:1026900000D100BFCA430280704710B5002200235A
:1026A00040F66A14A14200D100BF0A1201249440EE
:1026B000A3B2DC43048010BD21B1828942F40052F0
:1026C000828104E082894DF6FF731A40828170474F
:1026D00002460020B1F5007F00D100BF13880B40F7
:1026E0000BB1012000E00020704770B502460024C5
:1026F00000230025002040F66A16B14200D100BF39
:10270000C1F3421501F01F03012606FA03F3012D60
:1027100002D19689334006E0022D02D1168A334059
:1027200001E0968A33400C12012606FA04F416885A
:10273000344013B10CB1012000E0002070BDF0B5B1
:102740000346002400260025002040F66A17B942FF
:1027500000D100BF1846C1F3421401F01F06012743
:1027600007FA06F5012C01D10C3004E0022C01D14E
:10277000103000E014301AB107682F43076002E000
:102780000768AF430760F0BD2DE9FF4705460E46D9
:102790000024A14600BFA046B08900B100BF2C8A2A
:1027A00024F44054F08804432C82AC8941F20C603C
:1027B0008443B08831890843718908430443AC815C
:1027C000AC8A24F44074B0890443AC826846FFF7B5
:1027D0000DF82048854202D01F48854202D1DDF81D
:1027E0000C9001E0DDF80890A88900F4004040B1A9
:1027F00009EBC90000EB091031684900B0FBF1F7A3
:1028000007E009EBC90000EB091031688900B0FB53
:10281000F1F76420B7FBF0F004012009642101FB0B
:102820001078A88900F4004040B1322000EBC800C5
:10283000B0FBF1F000F00700044308E0322000EBA9
:1028400008106421B0FBF1F000F00F0004432C816C
:10285000BDE8FF8700100140001401400146888850
:10286000C0F308007047C1F308028280704700007F
:102870000FB4054B10B503A9044A029800F02CF8D8
:1028800010BC5DF814FB0000652E0008C400002099
:102890000FB4084B10B504A902AA039800F01CF865
:1028A000044602A9002000F048FA204610BC5DF85A
:1028B00014FB00003B2D000802E008C8121F08C1ED
:1028C000002AFAD170477047002001E001C1121FB1
:1028D000002AFBD1704700002DE9FF4F8DB00F4655
:1028E0000546002606E025280BD0DDE90F129047AB
:1028F0006D1C761C28780028F5D111B03046BDE853
:10290000F08F0024A246A1460122EC4900E00443D6
:1029100015F8013F203B02FA03F00842F7D128786E
:102920002A2810D06FF02F022878A0F13001092951
:1029300014D80AEB8A0102EB410144F0020400EBD7
:10294000010A6D1CF0E701CF5FEA000A03D544F4E9
:102950000054CAF1000A44F002046D1C28782E28A5
:1029600017D115F8010F44F004042A280ED06FF097
:102970002F022878A0F1300109290AD809EB890132
:1029800002EB410100EB01096D1CF2E757F8049BD3
:102990006D1C28786C280FD006DC4C2817D06828CE
:1029A0000DD06A2814D104E0742810D07A280FD1F1
:1029B0000DE044F400140AE044F4801401E044F40F
:1029C00040146978814202D104F580146D1C6D1C9D
:1029D0002A786E2A1FD00CDC632A31D004DC002A4E
:1029E0008BD0582A11D1A3E0642A68D0692A0CD16F
:1029F00065E0732A2ED004DC6F2A73D0702A04D1CC
:102A00009BE0752A6FD0782A6ED01046DDE90F1250
:102A10009047761C50E1C4F30250022806D00328E8
:102A200009D0042801CF09D0066045E101CFF11794
:102A3000C0E9006140E101CF06803DE106703BE165
:102A400017F8040B8DF8000000208DF80100EB460C
:102A5000012003E057F804BB4FF0FF3061074FF04F
:102A6000000102D40DE008F10101884649450FDA62
:102A70008045F8DB1BF808100029F4D108E008F1C4
:102A8000010188468142FADB1BF808100029F6D1C3
:102A9000DDE90F23AAEB08008146214600F036F954
:102AA000304400EB080604E0DDE90F121BF8010BCF
:102AB0009047B8F10108F7D221464846F7E00A21CD
:102AC000C4F302534FF0000B0891022B04D001CF46
:102AD000C117032B09D00AE0FF1D27F00707F7E80D
:102AE000020108E032E01FE020E000B2C117042B31
:102AF00001D140B2C117031E71F1000307DA4FF094
:102B0000000CD0EB0C006CEB01012D2302E023053F
:102B100004D52B238DF82430012303E0E30701D0F3
:102B20002023F7E7984658E00A2110E010210EE034
:102B300010204FF0000B08900CE010214FF0000B1C
:102B400044F004044FF00809089103E008214FF015
:102B5000000B0891C4F30253022B04D001CF0021D3
:102B6000032B06D006E0FF1D27F00707F7E8020158
:102B700003E080B2042B00D1C0B24FF0000823075D
:102B80002BD5702A07D0DDF820C08CF0100C5CEA41
:102B90000B0C05D00EE040238DF82430012308E013
:102BA00050EA010306D030238DF824308DF825201B
:102BB00002239846DDF820C08CF0080C5CEA0B0C70
:102BC0000BD150EA010301D1630706D530238DF8FC
:102BD00024304FF00108A9F10109582A04D038A285
:102BE0000B9208AA0A920BE03AA2F9E75B46089A10
:102BF000FDF774FB0B9B9B5C0A9A521E0A921370A2
:102C000050EA0102F2D10A98ADEB000000F1200B6E
:102C1000600702D524F4803401E04FF00109D94562
:102C200002DDA9EB0B0000E0002000EB0B014144AA
:102C30000890AAEB010AE00306D4DDE90F23214640
:102C4000504600F063F806444FF0000908E009A977
:102C500011F80900DDE90F12904709F10109761C0E
:102C6000C145F4DBE0030CD5DDE90F2321465046D6
:102C700000F04CF8064404E0DDE90F1230209047E4
:102C8000761C0899481E08900029F5DC08E00A988F
:102C90000A990078491C0A91DDE90F129047761CC9
:102CA000BBF10001ABF1010BF1DC21465046DDE93F
:102CB0000F2300F019F806446D1C1BE609280100DB
:102CC00030313233343536373839616263646566A2
:102CD0000000000030313233343536373839414264
:102CE00043444546000000002DE9F041044600251C
:102CF0001E461746880404D405E039462020B04714
:102D00006D1C641EF9D52846BDE8F0812DE9F0411F
:102D1000044600251E469046C80301D5302700E032
:102D20002027880404D505E041463846B0476D1C8D
:102D3000641EF9D52846BDE8F0810A68531C0B6073
:102D40001070704770B504460420FFF795F90C48E1
:102D5000047025464FF47A704543012009490880E4
:102D60004FF0E020006940F002004FF0E0210861E0
:102D700008464561006940F00100086170BD00002F
:102D8000C0000020C200002070B5044602F08CFB99
:102D9000012810D00B480088844206D309480088D7
:102DA000B4FBF0F5284601F01FFD06480088B4FB8F
:102DB000F0F100FB11444FF47A7104FB01F000F0D4
:102DC00003F870BDC200002070B5034600224FF02A
:102DD000E02675690D4E367803FB06F44FF0E026C9
:102DE000B16910E04FF0E026B06988420BD088420C
:102DF00002D20E1A324402E02E1A0E443244014628
:102E0000A24200D300E0EDE700BF70BDC00000208B
:102E100030B50446002504E04FF47A70FFF7D4FF84
:102E20006D1CA542F8D330BD17E04FF480710B48FC
:102E3000FDF705FE38B105210948FFF7D4FA012056
:102E4000FEF756F806E00F210548FFF7CCFA0120FF
:102E5000FEF72EF80A2001F0C7FCE6E7000002406A
:102E60000008004000BF054A128802F04002002A14
:102E7000F9D0C2B2014B9A807047000000100140A7
:102E80002DE9F04107460C460025002608E03846AB
:102E900000F00EF8284485B20520FFF775FF761C78
:102EA000A642F4DB95FBF4F080B2BDE8F0810000AF
:102EB00010B50446E1B2072301220848FDF74CFB98
:102EC0000648FDF7A5FB00BF02210448FDF710FBF3
:102ED0000028F9D00148FDF707FB10BD0020014094
:102EE00010B5FF24354B5A1E3549481EFDF74AFCE4
:102EF000044605210020FFF7C3FF32490880084639
:102F00000088642190FBF1F02C49491E09782B4A76
:102F1000521E527811442A4A521E12781144284AED
:102F2000521E52781144084426490988642291FBB4
:102F3000F2F302FB1311084400B22349088000F0A9
:102F4000CBF820480088B0F5FA6F02DD0220FDF7CB
:102F5000CFFF1C480088B0F5FA6F02DA0220FDF7B7
:102F6000A7FF1648401E00781E2804DAFDF7E6FC8D
:102F70000120164908601148401E00781E2809DB10
:102F8000FDF7E6FC1148006820B1FDF769FB002061
:102F90000E4908600948401E427801780CA0FFF7EE
:102FA00067FC0748401E427801780DA0FFF760FCDF
:102FB000044801880EA0FFF75BFC10BDD000002084
:102FC000CD000020D2000020D8000020D400002036
:102FD000CEC2B6C83A25642E2564A1E3430D0A008B
:102FE000CAAAB6C83A25642E256425250D0A000014
:102FF000B9E2D5D53A25646C780D0A0007E0FFF7F1
:103000006FFF01F051F84FF4FA5001F0EDFBF6E7D5
:103010001CB500210F480078C0EBC00000EB400059
:103020000D4A02EB801040238022CDE900010846C2
:10303000FEF7FAFA07480078401C142190FBF1F2E1
:1030400001FB1200034908703220FFF7E1FEFEF792
:1030500097F91CBDEC860020E01C00201CB515492A
:103060000020FEF7DDFC134880780090114843787B
:10307000C27811A11548FFF70BFC01201449402329
:103080008022CDE9001000210846FEF7CDFA01208C
:103090001823104A0C2100901020FEF730FB01206D
:1030A0000C230A4A242100902220FEF728FBFEF779
:1030B00067F91CBDF28500203230253032642D25A1
:1030C0003032642D2530326400000000B7880020C3
:1030D000E0000020CB880020FE2014490870C920A1
:1030E00048700620887012480078C87010484078F0
:1030F00008711048007848710E48407888710E4871
:103100000088642190FBF1F00849C8710A480088E2
:10311000642190FBF1F201FB120004490872074898
:1031200000784872FF20887270470000AC88002049
:10313000CF000020CC000020D2000020D8000020CA
:103140001FB501210820FEF721FB01211020FEF709
:103150001DFB1B20029002208DF80D0001208DF830
:103160000C0000208DF80E0001208DF80F0002A940
:103170000948FDF7F9FB40F68C00009002208DF81D
:10318000050000208DF8040001208DF80700694635
:103190000248FDF7E9FB1FBD000C02400010024091
:1031A00070B5FF250024ABE034B1012C09D0022C0E
:1031B0000CD0032C14D10EE001215448FDF748FC3B
:1031C0000EE002215148FDF743FC09E008214F4879
:1031D000FDF73EFC04E010214C48FDF739FC00BF30
:1031E00000BFD4B904214A48FDF729FC00B93125B4
:1031F00008214748FDF723FC00B9322580214448C7
:10320000FDF71DFC00B933254FF400614048FDF780
:1032100016FC002855D1412553E0012C1AD1042178
:103220003B48FDF70CFC00B9342508213848FDF770
:1032300006FC00B9352580213548FDF700FC00B9B2
:1032400036254FF400613248FDF7F9FB002838D1EC
:10325000422536E0022C19D104212D48FDF7EFFB61
:1032600000B9372508212A48FDF7E9FB00B93825C0
:1032700080212748FDF7E3FB00B939254FF40061B1
:103280002348FDF7DCFBE0B943251AE0032C18D1F5
:1032900004211F48FDF7D3FB00B92A2508211C484B
:1032A000FDF7CDFB00B9302580211948FDF7C7FB9C
:1032B00000B923254FF400611548FDF7C0FB00B9A4
:1032C000442534B1012C09D0022C0CD0032C14D18C
:1032D0000EE001210D48FDF7BDFB0EE002210B4879
:1032E000FDF7B8FB09E008210848FDF7B3FB04E04F
:1032F00010210648FDF7AEFB00BF00BF601CC4B242
:10330000042CFFF651AF284670BD0000000C0240AF
:10331000001002400DE00320FDF7CAFD4FF47A7063
:1033200001F062FA0320FDF7E3FD4FF47A7001F03B
:103330005BFAF0E71CB50120094940238022CDE962
:10334000001000210846FEF76FF901200C23054A02
:10335000002100902620FEF7D2F9FEF711F81CBDDF
:10336000E00C0020CB8800201CB54FF44070FDF726
:10337000F7FEA820FFF7E6FC4FF4E13001F054F827
:103380004FF4E13000F0FCFFFDF772FDFDF746F968
:10339000FDF756FDFDF726FD00F020FEFDF7A8FB2A
:1033A000FDF77AF9FDF73AFFFDF758FEFDF728F82B
:1033B00042F2CF01C720FEF7AFFEFDF7AFFAFFF7ED
:1033C000BFFEFEF7F9FEFDF7BBFBFDF7F7FBFDF7D0
:1033D00033FCFDF76FFC00F07FFE08A0FFF748FA12
:1033E0000B48012100238022CDE9001009A10C48DF
:1033F00002F02AF801F052FB00201CBDBAAFCAFD52
:10340000B3F5CABCBBAFCDEAB1CF2E2E2E00000063
:103410002400002073746172745F7461736B000028
:103420009D4200083FE0FFF7BBFE0446FF2C0FD093
:10343000442C0DD01C4801680068401C1A4A1060DA
:103440001A48445421461AA0FFF712FAFF2426E036
:10345000442C24D1154918A0FFF70AFA002113487B
:10346000114A126881541649FCF72AFF68B9FDF722
:1034700009F905211348FEF7B6FF4FF47A7001F001
:10348000B3F911A0FFF7F4F904E0FDF7E9F80FA094
:10349000FFF7EEF900200549087003490860642031
:1034A00001F0A2F900BFBEE7BC0000206487002045
:1034B00025630A0D0000000025730A0D00000000BE
:1034C0003C00002000080040796573006E6F00002A
:1034D0002DE9F04105460E461C4807681C48006867
:1034E000001D01F01CF850B91948006890F82C1024
:1034F0000120884017490968814316480160681C0B
:1035000038B936B112480168091D134801F045F871
:103510001AE07C190E4800684460BC4207D20C488F
:103520000168091D0D48006801F01DF80CE008480D
:103530000168091D0A48006801F015F8094800688B
:10354000844201D207480460BDE8F081048700206E
:10355000F086002008870020548E0020F886002086
:10356000F48600202087002010B5044601F022F8E0
:1035700024480068401C234908602348006840B97B
:10358000214804600846006801280DD100F0DEF9EA
:103590000AE01E48006838B91B480068C06AE16A42
:1035A000884201D81848046019480068401C18492E
:1035B000086008460068206494F82C1001208840B8
:1035C00014490968084313490860E16A01EB810165
:1035D000114A02EB8100211D00F0DFFF01F014F819
:1035E0000A48006868B108480068C06AE16A884211
:1035F00007D24FF0805009490860BFF34F8FBFF3E7
:103600006F8F10BD00870020F08600200C870020FF
:103610001C87002008870020A08D002004ED00E01A
:1036200010B500F0C7FF10480068D0B90F4800F08F
:103630008AFF0F4800F087FF0C480E4908600C48CD
:103640000D49086000220C210A2001F00DFC0649FA
:1036500008600846006820B108A10348006801F02E
:1036600087F800F0D1FF10BD34870020688E00205D
:103670007C8E00202C87002030870020546D7251F2
:103680000000000070B523E001F052FA1348006812
:1036900008B9012000E00020054602F0C7F8BDB9D6
:1036A00000F088FF0D48C068C468201D00F037FF97
:1036B0000B480068401E0A4908600A480068401E1E
:1036C0000849086000F0A0FF204600F060F800BF45
:1036D000044800680028D7D170BD0000408E00204B
:1036E00000870020FC86002070B504460D46206C43
:1036F00070B1216CE0680844E0606168E06888426D
:1037000001D32068E0602846226CE168FCF7B4FD34
:1037100070BD2DE9F04104460F4615464FF00008F4
:10372000A66B206C40B9206860BB606801F076FF32
:1037300080460020606025E07DB93946226CA06893
:10374000FCF79AFD216CA0680844A060D4E9011040
:10375000884217D32068A06014E03946226CE068E4
:10376000FCF78AFD216CE068401AE0602168E0689F
:10377000884203D2216C6068401AE060022D01D1BA
:1037800006B1761E701CA0634046BDE8F08110B5FE
:103790000446206B00F056FF204600F053FF10BD9A
:1037A0000146084A126812680AB9012200E00022A4
:1037B0000A600A6822B9034A1268D268106800E0F9
:1037C000002070472C87002030B54FF496331748FF
:1037D00000F007042CB1C01D20F00700134C041B9F
:1037E0001B1B0246124C22600024114D6C60D01845
:1037F000083820F007000F4C206000240D4D2D6884
:103800006C600C4D2D682C601146441A4C60094CBC
:1038100024680C60084D4C682C60084D4C682C6086
:103820004FF00044064D2C6030BD0000908E00200B
:103830004C870020548700205C8700205887002098
:103840006087002000BFFFF71DFF064800680128C1
:10385000F9D94FF0805004490860BFF34F8FBFF390
:103860006F8FF0E7A08D002004ED00E02DE9F0411E
:1038700006460D4617469846069C0DB9246000E0A2
:103880002760E66325640121204601F0FBFB84F8F4
:103890004C80BDE8F0812DE9F05F82460F469046EE
:1038A0009B460A9E0C9C4FEA8801A522206BFCF7E0
:1038B000F5FCA8F10100216B01EB800929F0070953
:1038C00009F0070008B9012000E0002050B900BF4E
:1038D000502080F31188BFF34F8FBFF36F8F00BF6D
:1038E00000BFFEE7002507E0795D04F13400415593
:1038F000785D00B902E06D1C0A2DF5D300BF0021F0
:103900003D200155052E00D30426E662A664002062
:10391000E064201D00F024FE04F1180000F020FEF9
:103920002461C6F10500A06164620020206584F86E
:1039300054005A465146484600F03AFB20600B9826
:1039400008B10B980460BDE8F09F000010B500249A
:1039500007E004EB84010F4A02EB810000F0F3FD65
:10396000641C052CF5D30C4800F0EDFD0B4800F06D
:10397000EAFD0B4800F0E7FD0A4800F0E4FD0A48C4
:1039800000F0E1FD0448094908600448084908605E
:1039900010BD0000A08D0020048E0020188E002095
:1039A0002C8E0020408E0020548E0020F4860020B3
:1039B000F886002010B50146164800E0006803684C
:1039C0008B42FBD30246436813448B4204D14368C5
:1039D0004C682344436001460A464B68134404681C
:1039E000A34211D10C4C03682468A34208D04B6851
:1039F0000468646823444B6003681B680B6005E03F
:103A0000054B1B680B6001E003680B60884200D027
:103A1000016010BD4C870020548700202DE9F04143
:103A200004460D4616461F464FF0000865602461A7
:103A3000B5420CD8F01BA169884202D34FF00108AF
:103A400011E0211D0948006800F08DFD0BE0BE4229
:103A500004D2BD4202D34FF0010804E0211D044806
:103A6000006800F080FD4046BDE8F081308700200E
:103A70002C87002070B5054600F09CFDA86B08B9A6
:103A8000012400E0002400F0BFFD204670BD70B5A9
:103A9000054600F08FFDA86BE96B884201D1012437
:103AA00000E0002400F0B0FD204670BDF8B50546EA
:103AB0000F4616480068C068C468201D00F02FFD3E
:103AC000E06901281DD1A06941192B463A462046DC
:103AD000FFF7A4FFA8B1002003462A460146009044
:103AE000204601F051FF064656B900BF502080F332
:103AF0001188BFF34F8FBFF36F8F00BF00BFFEE78A
:103B000000BF2046616A8847F8BD00002C8700206E
:103B100070B586B06AE00398002867DB059C606991
:103B200008B9012000E0002010B9201D00F0F7FCCA
:103B300002A800F0BDF8054603980A2854D2DFE831
:103B400000F009050731334F0608323400BF00BFCB
:103B500000BF00BF0498A269811803462A46204688
:103B6000FFF75CFFE8B12046616A8847E0690128F9
:103B700017D1002000900498A1694218002319462B
:103B8000204601F001FF064656B900BF502080F3E1
:103B90001188BFF34F8FBFF36F8F00BF00BFFEE7E9
:103BA00000BF22E000BF20E000BF0498A061A06930
:103BB00008B1012000E0002050B900BF502080F380
:103BC0001188BFF34F8FBFF36F8F00BF00BFFEE7B9
:103BD000A06941192B462A462046FFF71FFF04E043
:103BE000204600F02FFD00E000BF00BF00231A4672
:103BF00003A90448006801F063F900288BD106B0DE
:103C000070BD000034870020F8B505460C4600F072
:103C10008FFF684600F04CF80646009820BB44B978
:103C2000B54206D801F002FE31462846FFF73EFFB6
:103C30001CE03CB10E480068006808B9012000E0B3
:103C400000200446A91B22460A48006800F0A6FD91
:103C500001F0ECFD50B94FF0805007490860BFF308
:103C60004F8FBFF36F8F01E001F0E0FDF8BD000062
:103C7000308700203487002004ED00E00A490968FD
:103C8000096809B9012100E0002121B14FF0FF319D
:103C9000064A116006E004490968C968C868034A11
:103CA0004168116070470000F486002020870020E2
:103CB00070B5044601F008FC0546074800688542D7
:103CC00004D200F00BF80120206001E00020206009
:103CD00001480560284670BD3C8700202DE9F84367
:103CE00032E024480068C068056822480068C0685F
:103CF000C468201D00F013FC2046616A8847E06913
:103D0000012821D1A0694619AE4207D96660246115
:103D1000211D1848006800F026FC15E0002003462D
:103D20002A4601460090204601F02EFE074657B96C
:103D300000BF502080F31188BFF34F8FBFF36F8F08
:103D400000BF00BFFEE700BF0A480068006808B96E
:103D5000012000E000200028C3D00648D0F80080F1
:103D600005480068034908600348C0F80080BDE8C2
:103D7000F88300002C870020308700200E48006860
:103D8000401C08B9012000E0002050B900BF5020BD
:103D900080F31188BFF34F8FBFF36F8F00BF00BF59
:103DA000FEE700BF502080F31188BFF34F8FBFF3B1
:103DB0006F8F00BF00BFFEE74087002008B500BF3F
:103DC0006846FFF7EDFC044620460099FFF71CFF0C
:103DD000FFF79EFEF4E770B5044600F0EBFB94F9A4
:103DE000455010E0606A08B9012000E0002038B9B1
:103DF00004F1240001F076FC18B100F09DFD00E014
:103E000003E0681E45B2002DECDC00BFFF2084F803
:103E1000450000F0F9FB00F0CDFB94F9445010E0B0
:103E2000206908B9012000E0002048B904F1100021
:103E300001F058FC08B100F07FFD681E45B200E0BB
:103E400001E0002DECDC00BFFF2084F8440000F00E
:103E5000DBFB70BD2DE9F04104464FF0000800F097
:103E600067FE4648006808B9FFF7AEFC44480068A2
:103E7000204000286BD1D4B1083404F00700B0B161
:103E800004F00700C0F10800044404F0070008B97A
:103E9000012000E0002050B900BF502080F31188BD
:103EA000BFF34F8FBFF36F8F00BF00BFFEE7002C43
:103EB0004DD034480068844249D8334E30460568B6
:103EC00001E02E462D686868A04202D228680028CA
:103ED000F7D12A480068854239D0306800F10808D7
:103EE000286830606868001B102819D92F1907F05E
:103EF000070008B9012000E0002050B900BF5020A1
:103F000080F31188BFF34F8FBFF36F8F00BF00BFE7
:103F1000FEE76868001B78606C603846FFF74AFD72
:103F2000184968680968081A164908600846006850
:103F300016490968884203D212480068134908608C
:103F40000F4968680968084368600020286001F02C
:103F50006DFC08F0070008B9012000E0002050B90E
:103F600000BF502080F31188BFF34F8FBFF36F8FD6
:103F700000BF00BFFEE74046BDE8F0815487002047
:103F800060870020588700204C8700205C87002035
:103F90000648006830B10549096801F14C00C96C58
:103FA000491C01600148006870470000F08600204D
:103FB000001F4FF080730360001F21F001030360B6
:103FC000001F054B036014380260001F6FF00203EE
:103FD00003602038704700007D3D000810B51021B7
:103FE0002F48FCF72CFD80B120212D48FCF727FD40
:103FF00058B140212A48FCF722FD30B14FF400515E
:104000002848FCF71CFD002848D10A20FEF700FFD5
:1040100010212348FCF713FD58B900BF1021204898
:10402000FCF70DFD0028F9D00A20FEF7F1FE012073
:1040300010BD20211A48FCF702FD58B900BF20210D
:104040001748FCF7FCFC0028F9D00A20FEF7E0FE38
:104050000220EDE740211248FCF7F1FC58B900BFFF
:1040600040210F48FCF7EBFC0028F9D00A20FEF7AE
:10407000CFFE0320DCE74FF400510A48FCF7DFFCD9
:1040800060B900BF4FF400510648FCF7D8FC002887
:10409000F8D00A20FEF7BCFE0420C9E70020C7E7DD
:1040A000001002400008024010B50B2207490848E2
:1040B00000F014FA002405E00448015D05A0FEF7B5
:1040C000D7FB641C0B2CF7DB10BD0000AC88002074
:1040D000004400402578200010B533A0FEF7C8FB4F
:1040E000062236A1374800F0F9F94FF47A70FEF74E
:1040F0004BFE0E2234A1334800F0F0F94FF47A70F1
:10410000FEF742FE052234A12E4800F0E7F94FF4F5
:104110007A70FEF739FE0E2231A12A4800F0DEF94E
:104120004FF4FA60FEF730FE0B2231A1254800F073
:10413000D5F940F6B830FEF727FE1C222FA1214802
:1041400000F0CCF941F28830FEF71EFE32A0FEF7F7
:104150008FFB0E2234A11B4800F0C0F94FF4FA6027
:10416000FEF712FE0F2234A1164800F0B7F94FF403
:10417000FA60FEF709FE272233A1124800F0AEF9DB
:104180004FF4FA60FEF700FE39A0FEF771FB0D2236
:104190003AA10C4800F0A2F94FF4FA60FEF7F4FDE2
:1041A0003AA0FEF765FB10BDD5FDD4DAC1ACBDD396
:1041B000CEEFD2B5CFB5CDB32E2E2E002B2B2B0D9F
:1041C0000A0000000044004041542B434950434C36
:1041D0004F53450D0A00000041540D0A0000000035
:1041E00041542B43574D4F44453D310D0A000000CB
:1041F00041542B43574C41500D0A000041542B436E
:10420000574A41503D22776879222C22313233348B
:1042100035363738220D0A0077696669C1ACBDD3DF
:10422000B3C9B9A60000000041542B4349504D5575
:10423000583D300D0A00000041542B4349504D4F6A
:1042400044453D310D0A000041542B43495053541D
:104250004152543D22544350222C223139322E31C6
:1042600036382E342E31222C383038390D0A0000E1
:10427000746370C1ACBDD3B3C9B9A60041542B431C
:10428000495053454E440D0A00000000CDB8B4AB70
:10429000C4A3CABDBFAAC6F4000000001CB50446F2
:1042A00000F088F91C48042100233222CDE90010D7
:1042B0001AA11D4801F0C8F81C4805210023C82296
:1042C000CDE900101AA11D4801F0BEF81C480321D9
:1042D0000023C822CDE900101AA11D4801F0B4F84E
:1042E0001C48022100238022CDE900101AA11D489C
:1042F00001F0AAF81C4806210023C822CDE90010CD
:104300001AA11D4801F0A0F81C48006800F09AFAB4
:1043100000F07AF91CBD0000300000206C656433A9
:104320005F7461736B000000153300082C000020DF
:104330004B45595F7461736B00000000150E000857
:10434000280000206C6564325F7461736B000000AC
:10435000FD2F000834000020666C6F61745F74618B
:10436000736B0000292E0008380000207061737301
:1043700077645F7461736B002534000824000020AB
:1043800010B588B0044601214804FDF70FFA012159
:104390000820FDF7FBF9072205212148FCF72CFB3B
:1043A000072206211E48FCF727FB6020069002200A
:1043B0008DF81C0000208DF81D0001208DF81F00D5
:1043C00006A91748FCF7D0FA02940020ADF81400B3
:1043D0000C20ADF812000020ADF81000ADF80E0072
:1043E000ADF80C0002A90F48FEF7CEF901210D48E7
:1043F000FEF762F9012240F225510A48FEF79FF9C3
:1044000026208DF8040001208DF807008DF80500A6
:104410008DF8060001A8FCF767FE08B010BD00008B
:10442000000C02400044004010B588B00446012151
:104430000846FDF7ABF901211020FDF7C7F9072267
:1044400009212448FCF7D8FA07220A212148FCF761
:10445000D3FA4FF4C060069002208DF81C008DF84E
:104460001D0000208DF81E0001208DF81F0006A9F8
:104470001848FCF779FA02940020ADF80C00ADF86A
:104480000E00ADF81000ADF814000C20ADF81200CD
:1044900002A91148FEF778F901210F48FEF70CF93F
:1044A00040210D48FEF7F0F8012240F225510A485C
:1044B000FEF745F925208DF8040003208DF805004E
:1044C0008DF8060001208DF8070001A8FCF70CFE0E
:1044D00008B010BD00000240001001402DE9F0417D
:1044E00007460C461546002640213846FEF7CCF814
:1044F00000BF10E021783846FEF7B5F900BF402133
:104500003846FEF7E5F80028F9D040213846FEF796
:10451000BBF8641C761CAE42ECDBBDE8F0810146C2
:104520000A69D1E901309860D1E901035860506807
:10453000884201D188685060002008611068401EE0
:1045400010601068704700F1080141604FF0FF31C2
:10455000816000F10801C1600161002101607047C4
:1045600000210161704710B502460B685C1C0CB954
:10457000106907E002F1080000E040684468246820
:104580009C42FAD944684C604C68A16088604160E4
:104590000A611468641C146010BD42684A60936824
:1045A0008B60936859609160086103685B1C0360CD
:1045B0007047000000BF502080F31188BFF34F8F79
:1045C000BFF36F8F00BF0E480068401C0C490860A5
:1045D00008460068012812D10A480068C0B208B92C
:1045E000012000E0002050B900BF502080F3118866
:1045F000BFF34F8FBFF36F8F00BF00BFFEE7704761
:104600004087002004ED00E00D48006850B900BF6D
:10461000502080F31188BFF34F8FBFF36F8F00BF1F
:1046200000BFFEE706480068401E054908600846CE
:10463000006820B9002080F3118800BF00BF7047D8
:104640004087002070B506463546002E3FD0083D15
:104650002C461F4960680968084008B1012000E045
:10466000002050B900BF502080F31188BFF34F8F56
:10467000BFF36F8F00BF00BFFEE7206808B90120BD
:1046800000E0002050B900BF502080F31188BFF334
:104690004F8FBFF36F8F00BF00BFFEE70C4960680C
:1046A0000968084098B1206888B9094960680968B4
:1046B0008843606000F03CFA064960680968084475
:1046C000044908602046FFF775F901F0AFF870BDA6
:1046D0006087002058870020064800684FF47A71F0
:1046E000B0FBF1F0401E4FF0E02148610720086167
:1046F000704700001000002070B5FBF7A7FD0446CE
:10470000102C16D304F1E02090F8F05315480078EF
:10471000854201DB012000E0002050B900BF50209D
:1047200080F31188BFF34F8FBFF36F8F00BF00BFBF
:10473000FEE70D48006800F4E0600C490968884213
:1047400001D8012000E0002050B900BF502080F3C4
:104750001188BFF34F8FBFF36F8F00BF00BFFEE71D
:1047600070BD0000448700200CED00E04887002069
:10477000024600200BE0084B53F8303033B9064BAB
:1047800043F8301003EBC0035A6002E0401C0828D5
:10479000F1D300BF70470000608D00202DE9F0418B
:1047A00005460E4617462C46FFF704FF94F94400D1
:1047B000401C10B9002084F8440094F94500401CC6
:1047C00010B9002084F84500FFF71EFFA06B28B940
:1047D0003A46314604F1240000F0D0F82046FFF7B5
:1047E000FAFABDE8F081000070B504460025D4B1A6
:1047F0001248006808B9012000E0002050B900BF4D
:10480000502080F31188BFF34F8FBFF36F8F00BF2D
:1048100000BFFEE700F08CF900212046FEF758FEAD
:1048200001F004F805463DB94FF080500449086096
:10483000BFF34F8FBFF36F8F70BD0000288700203C
:1048400004ED00E070B50546FFF7B4FE15B9304839
:10485000006800E028460446201DFFF760FE78B996
:10486000E06A00EB80002B4951F8200040B994F831
:104870002C1001208840284909688143264801609E
:10488000A06A18B104F11800FFF749FE2348006838
:10489000401C224908601E480068844209D1211D3D
:1048A0001F48FFF77AFE1F480068401C1D4908603A
:1048B00009E01D480068401E1B4908602046FEF7BD
:1048C00066FFFFF7DBF9FFF79FFE18480068E8B1C5
:1048D0000F480068844219D11548006808B90120C2
:1048E00000E0002050B900BF502080F31188BFF3D2
:1048F0004F8FBFF36F8F00BF00BFFEE74FF08050B8
:104900000C490860BFF34F8FBFF36F8F70BD00007D
:10491000F0860020A08D0020088700201C87002042
:10492000408E0020FC860020008700200C8700209D
:104930002887002004ED00E001200149086070474D
:104940001487002070B504460D4654B900BF5020AE
:1049500080F31188BFF34F8FBFF36F8F00BF00BF8D
:10496000FEE70548016818312046FFF7FCFD0121EC
:104970002846FEF7ADFD70BDF086002070B50546F7
:104980000E46144655B900BF502080F31188BFF37E
:104990004F8FBFF36F8F00BF00BFFEE7064801686F
:1049A00018312846FFF7F9FD0CB14FF0FF362146CC
:1049B0003046FEF78DFD70BDF086002070B50546CF
:1049C0002C46002D4BD02649E06A0968C96A884206
:1049D00045D2A06900F0004028B921480068C06AAB
:1049E000C0F10500A061E16A01EB81011D4A02EB03
:1049F00081016069884201D1012000E0002050B3AC
:104A0000201DFFF78CFD78B9E06A00EB80001549A6
:104A100051F8200040B994F82C1001208840124928
:104A200009688143104801600D480068C06AE0626F
:104A300094F82C10012088400B49096808430A4962
:104A40000860E16A01EB8101064A02EB8100211D49
:104A5000FFF7A3FD03E002480068C06AE06270BD92
:104A6000F0860020A08D00200887002050B900BFEC
:104A7000502181F31188BFF34F8FBFF36F8F00BFB9
:104A800000BFFEE703490968016003490968416006
:104A90007047000018870020048700201CB51D48BF
:104AA00000210B468222CDE900101BA11C4800F01A
:104AB000CBFC0446012C02D100F03AFF0446012C45
:104AC00015D100BF502080F31188BFF34F8FBFF383
:104AD0006F8F00BF4FF0FF3012490860012012496C
:104AE000086000201149086000F006F910E0601C21
:104AF00008B1012000E0002050B900BF502080F331
:104B00001188BFF34F8FBFF36F8F00BF00BFFEE769
:104B10001CBD00002487002049444C4500000000D3
:104B200045380008208700200C87002004870020DB
:104B300002480068401C014908607047288700202F
:104B40001D48006818B101201C49086032E00020AF
:104B50001A4908601A480068B0FA80F0C0F11F01D5
:104B600001EB8100174A52F8200008B1012000E053
:104B7000002050B900BF502080F31188BFF34F8F41
:104B8000BFF36F8F00BF00BFFEE701EB81020D4B4B
:104B900003EB820042685268426000F108024368F9
:104BA000934202D14268526842604268D268064B22
:104BB0001A6000BF7047000028870020148700207B
:104BC00008870020A08D0020F08600202DE9F0410C
:104BD00005460E462C4655B900BF502080F311887B
:104BE000BFF34F8FBFF36F8F00BF00BFFEE706F02C
:104BF0007F4008B9012000E0002050B900BF5020DC
:104C000080F31188BFF34F8FBFF36F8F00BF00BFDA
:104C1000FEE7FFF7CFFC27682068B0432060FFF76E
:104C2000F3FC3846BDE8F0812DE9FE4F0746884683
:104C3000002001903C46009057B900BF502080F3FF
:104C40001188BFF34F8FBFF36F8F00BF00BFFEE728
:104C500008F07F4008B9012000E0002050B900BFF3
:104C6000502080F31188BFF34F8FBFF36F8F00BFC9
:104C700000BFFEE704F1040909F108000290FFF704
:104C800057FFD9F80C60206840EA0800206026E051
:104C9000D6F804B035680020009005F07F4A25F072
:104CA0007F450AF0806028B92068284040B1012083
:104CB000009005E020682840A84201D10120009022
:104CC000009858B10AF0807010B101982843019003
:104CD000206840F00071304600F050FD5E460298BA
:104CE0008642D5D1206801998843206000F09EFD5E
:104CF0002068BDE8FE8F00001CB5474800684749A2
:104D0000884201D0012000E0002050B900BF5020AF
:104D100080F31188BFF34F8FBFF36F8F00BF00BFC9
:104D2000FEE73D4800683D49491E884201D0012008
:104D300000E0002050B900BF502080F31188BFF37D
:104D40004F8FBFF36F8F00BF00BFFEE734490846A7
:104D500000780190FF200A46107008460078009005
:104D60009DF8000000F0F0009DF80020904201D175
:104D7000012000E0002050B900BF502080F31188CE
:104D8000BFF34F8FBFF36F8F00BF00BFFEE79DF8EB
:104D9000000000F05000234A10700720224A1060E3
:104DA00009E021480068401E1F4A10609DF800007D
:104DB0004006000E00909DF8000000F08000802862
:104DC000EFD0194800680002174A106010460088AA
:104DD00000F4E0601060124A019810700E48203014
:104DE000006840F470000C492031086008460068F3
:104DF00040F070400860FFF76FFC00200B4908602E
:104E0000FBF7ECF90A48006840F0404008490860A8
:104E1000FBF7D4F900201CBD00ED00E071C20F418A
:104E200000E400E0448700204887002040870020FD
:104E300034EF00E010B500BF502080F31188BFF3BD
:104E40004F8FBFF36F8F00BF00F044FB18B14FF0DE
:104E500080500449086000BF002080F3118800BF23
:104E600010BD000004ED00E02DE9F84305460E46B4
:104E700090460DB1012000E0002050B900BF502045
:104E800080F31188BFF34F8FBFF36F8F00BF00BF58
:104E9000FEE70EB9002701E005FB06F707F1500019
:104EA000FEF7D8FF044644B104F1500943464A4690
:104EB000314628460094FEF7D9FC2046BDE8F88329
:104EC0002DE9FF4782B005460E461F464FF0000A07
:104ED0002C4654B900BF502080F31188BFF34F8F88
:104EE000BFF36F8F00BF00BFFEE70EB9206C08B99B
:104EF000012000E0002050B900BF502080F311884D
:104F0000BFF34F8FBFF36F8F00BF00BFFEE700F00E
:104F1000CBFA08B9049808B9012000E0002050B984
:104F200000BF502080F31188BFF34F8FBFF36F8F06
:104F300000BF00BFFEE700BFFFF73CFBD4F838908E
:104F4000B9F1000F3DD0D4F80C8031462046FEF771
:104F5000CBFBDFB9A9F10100A063206810B9FFF70E
:104F600017F86060206908B9012000E0002010BB3C
:104F700004F1100000F0B6FBE8B14FF0805040495A
:104F80000860BFF34F8FBFF36F8F14E0C4F80C803D
:104F9000606A08B9012000E0002060B904F1240033
:104FA00000F0A0FB38B14FF0805035490860BFF3E6
:104FB0004F8FBFF36F8FFFF727FB012006B0BDE8CF
:104FC000F087049818B9FFF71FFB0020F6E7BAF145
:104FD000000F04D16846FFF749FD4FF0010AFFF7C3
:104FE00013FBFFF7A5FDFFF7E5FA94F94400401C19
:104FF00010B9002084F8440094F94500401C10B911
:10500000002084F84500FFF7FFFA04A9684600F085
:10501000D5F940BB2046FEF72DFDF0B1206830B930
:10502000FFF7C8FA6068FFF7C9FCFFF7EDFA04F173
:1050300024000499FFF786FC2046FEF7CCFE00F022
:10504000F5FB00287FF478AF4FF080500C490860E2
:10505000BFF34F8FBFF36F8F6EE72046FEF7BBFEA7
:1050600000F0E4FB68E72046FEF7B5FE00F0DEFB4B
:105070002046FEF7FFFC0028EED000209EE700004F
:1050800004ED00E070B505460E462C4654B900BF4D
:10509000502080F31188BFF34F8FBFF36F8F00BF95
:1050A00000BFFEE7FFF786FAD4E90F12206801FB84
:1050B000020060600020A0632068A060E06B401EDA
:1050C000226C216800FB0210E060FF2084F844009D
:1050D00084F845009EB9206908B9012000E000204D
:1050E000A8B904F1100000F0FDFA80B14FF0805033
:1050F00009490860BFF34F8FBFF36F8F07E004F1DA
:105100001000FFF720FA04F12400FFF71CFAFFF764
:105110007BFA012070BD000004ED00E02DE9FF43A3
:1051200083B0064688461D464FF00009344654B900
:1051300000BF502080F31188BFF34F8FBFF36F8FF4
:1051400000BF00BFFEE7B8F1000F01D1206C08B925
:10515000012000E0002050B900BF502080F31188EA
:10516000BFF34F8FBFF36F8F00BF00BFFEE7022D6D
:1051700002D1E06B012801D1012000E0002050B9EC
:1051800000BF502080F31188BFF34F8FBFF36F8FA4
:1051900000BF00BFFEE700F087F908B9059808B91D
:1051A000012000E0002050B900BF502080F311889A
:1051B000BFF34F8FBFF36F8F00BF00BFFEE700BF8D
:1051C000FFF7F8F9A06BE16B884201D3022D28D1DB
:1051D0002A4641462046FEF79CFA0746606A08B90F
:1051E000012000E0002068B904F1240000F07AFA00
:1051F00088B14FF0805032490860BFF34F8FBFF342
:105200006F8F08E03FB14FF080502D490860BFF329
:105210004F8FBFF36F8FFFF7F7F9012007B0BDE89D
:10522000F083059818B9FFF7EFF90020F6E7B9F118
:10523000000F04D101A8FFF719FC4FF00109FFF797
:10524000E3F9FFF775FCFFF7B5F994F94400401C4A
:1052500010B9002084F8440094F94500401C10B9AE
:10526000002084F84500FFF7CFF905A901A800F058
:10527000A5F8F0B92046FEF70AFCA0B104F1100031
:105280000599FFF75FFB2046FEF7A5FD00F0CEFA7B
:10529000002895D14FF0805009490860BFF34F8F27
:1052A000BFF36F8F8CE72046FEF795FD00F0BEFA46
:1052B00086E72046FEF78FFD00F0B8FA0020ADE744
:1052C00004ED00E02DE9F05F07468A4690461E4651
:1052D0003C4654B900BF502080F31188BFF34F8F74
:1052E000BFF36F8F00BF00BFFEE7BAF1000F01D11F
:1052F000206C08B9012000E0002050B900BF502008
:1053000080F31188BFF34F8FBFF36F8F00BF00BFD3
:10531000FEE7022E02D1E06B012801D1012000E05E
:10532000002050B900BF502080F31188BFF34F8F89
:10533000BFF36F8F00BF00BFFEE7FFF7DDF900BFCF
:105340005021EFF3118081F31188BFF34F8FBFF32A
:105350006F8F00BF0546A06BE16B884201D3022E20
:1053600023D194F945B0324651462046FEF7D1F993
:105370000BF1010088B9606A08B9012000E0002043
:1053800080B904F1240000F0ADF958B1B8F1000F74
:1053900008D00120C8F8000004E00BF1010040B281
:1053A00084F845004FF0010901E04FF0000900BF0B
:1053B00085F3118800BF4846BDE8F09F70B50446EC
:1053C0000D4654B900BF502080F31188BFF34F8FB2
:1053D000BFF36F8F00BF00BFFEE755B900BF50207D
:1053E00080F31188BFF34F8FBFF36F8F00BF00BFF3
:1053F000FEE7FFF7DFF8124803682868401C08B989
:10540000002619E00F4920680968884204D06068C6
:10541000984201D801260FE06068181A296888426E
:1054200009D228686168591A401A28602046FFF797
:105430001DFB002600E00126FFF7E6F8304670BDB0
:1054400004870020188700202DE9FF4F85B0804693
:1054500089461746DDE912ABB800FEF7FBFC0646AD
:1054600056B15820FEF7F6FC04460CB1266304E062
:105470003046FFF7E7F800E000247CB10020CDE9DA
:1054800000ABCDE902403A4649464046089BFEF74C
:1054900002FA2046FEF768F8012501E04FF0FF35DB
:1054A000284609B0BDE8F08F0549096809B901200F
:1054B00005E00449096809B9022000E000207047AE
:1054C0000C870020288700200149086870470000E9
:1054D000048700202DE9F0414FF00008444800689F
:1054E000002877D143480068451C4248056015BB39
:1054F00041480068006808B9012000E0002050B968
:1055000000BF502080F31188BFF34F8FBFF36F8F20
:1055100000BF00BFFEE738480768384800683649D2
:1055200008603648076036480068401C3449086007
:10553000FEF7A4FB00BF3348006885423CD300BFA0
:105540002D480068006808B9012000E0002020B163
:105550004FF0FF302B4908602DE027480068C068F5
:10556000C4686668B54202D22648066023E0201D62
:10557000FEF7D5FFA06A18B104F11800FEF7CFFFBF
:1055800094F82C10012088401F49096808431E49DF
:105590000860E16A01EB81011C4A02EB8100211DD8
:1055A000FEF7FBFF1A49E06A0968C96A8842C7D357
:1055B0004FF00108C4E700BF15480068C06A00EB5F
:1055C0008000124951F82000012801D94FF001084C
:1055D00005E0FFE70F480068401C0E4908600E48D0
:1055E000006808B14FF001084046BDE8F0810000B6
:1055F0002887002004870020F4860020F8860020F9
:10560000188700202087002008870020A08D002018
:10561000F0860020108700201487002070B5054612
:105620002C460026002D55D02B480068844201D11D
:10563000012000E0002050B900BF502080F3118805
:10564000BFF34F8FBFF36F8F00BF00BFFEE7E06C6B
:1056500050B900BF502080F31188BFF34F8FBFF3C4
:105660006F8F00BF00BFFEE7E06C401EE064A16CDE
:10567000E06A88422ED0E06C60BB201DFEF74FFF31
:1056800078B9E06A00EB8000144951F8200040B975
:1056900094F82C1001208840114909688143104872
:1056A0000160A06CE062E06AC0F10500A06194F8BE
:1056B0002C10012088400A490968084308490860FD
:1056C000E16A01EB8101054A02EB8100211DFEF731
:1056D00064FF0126304670BDF0860020A08D0020BA
:1056E0000887002070B50646F068C46854B900BF4A
:1056F000502080F31188BFF34F8FBFF36F8F00BF2F
:1057000000BFFEE704F11800FEF709FF1548006826
:10571000A8B9201DFEF703FF94F82C100120884043
:1057200011490968084310490860E16A01EB8101E9
:105730000E4A02EB8100211DFEF72FFF04E004F169
:1057400018010B48FEF729FF0A49E06A0968C96A8F
:10575000884204D9012501200749086000E000259E
:10576000284670BD2887002008870020A08D0020D3
:105770002C8E0020F0860020148700202DE9F041B7
:1057800005460F462448006808B1012000E00020CB
:1057900050B900BF502080F31188BFF34F8FBFF383
:1057A0006F8F00BF00BFFEE747F000402860EC6845
:1057B00054B900BF502080F31188BFF34F8FBFF35F
:1057C0006F8F00BF00BFFEE72846FEF7A8FE201D32
:1057D000FEF7A5FE94F82C10012088400F490968B7
:1057E00008430E490860E16A01EB81010C4A02EBB3
:1057F0008100211DFEF7D1FE0A49E06A0968C96AE5
:10580000884204D9012601200749086000E00026EB
:105810003046BDE8F081000028870020088700207E
:10582000A08D0020F08600201487002070B5002491
:1058300000263648006850B900BF502080F3118818
:10584000BFF34F8FBFF36F8F00BF00BFFEE7FEF7C0
:10585000B1FE2E480068401E2C49086008460068CA
:1058600000284FD12A48006800284BD024E029485E
:10587000C068C46804F11800FEF751FE201DFEF751
:105880004EFE94F82C1001208840234909680843F3
:1058900021490860E16A01EB8101204A02EB8100A5
:1058A000211DFEF77AFE1E49E06A0968C96A88422E
:1058B00002D301201B4908601648006808B901207E
:1058C00000E000200028D2D00CB1FEF7D7F916482E
:1058D000056865B100BFFFF7FDFD10B1012011495A
:1058E00008606D1E002DF6D100200F4908600D489C
:1058F000006838B1012630070C490860BFF34F8FAC
:10590000BFF36F8FFEF780FE304670BD2887002002
:10591000008700202C8E002008870020A08D00200A
:10592000F0860020148700201087002004ED00E09E
:105930001CB50024FDF774FE0E48006858B10E48EF
:10594000022100234FF48272CDE900100BA10D4813
:10595000FFF77AFD044654B900BF502080F3118848
:10596000BFF34F8FBFF36F8F00BF00BFFEE720462E
:105970001CBD00003487002038870020546D722041
:1059800053766300BD3D00082DE9FE4304460D46F5
:1059900016461F46DDF828804FF0000954B900BFB5
:1059A000502080F31188BFF34F8FBFF36F8F00BF7C
:1059B00000BFFEE71448006810B3009501960294FA
:1059C000062D15DAFFF770FD022808D100234246A4
:1059D00069460D480068FFF7A1FB814610E00023EF
:1059E0001A46694608480068FFF798FB814607E0B9
:1059F00000233A46694604480068FFF763FC814685
:105A00004846BDE8FE830000348700200000000007
:105A100000000000002F0000000007000700001435
:105A20007F147F1400242A7F2A1200626408132343
:105A300000364955225000000503000000001C22DA
:105A40004100000041221C000014083E0814000818
:105A5000083E0808000000A06000000808080808C8
:105A6000000060600000002010080402003E514960
:105A7000453E0000427F40000042615149460021FE
:105A800041454B31001814127F1000274545453918
:105A9000003C4A4949300001710905030036494973
:105AA000493600064949291E00003636000000002C
:105AB0005636000000081422410000141414141477
:105AC0000000412214080002015109060032495920
:105AD000513E007C1211127C007F49494936003E3C
